{
  "contractName": "Collectible",
  "abi": [
    {
      "inputs": [],
      "stateMutability": "nonpayable",
      "type": "constructor"
    },
    {
      "anonymous": false,
      "inputs": [
        {
          "indexed": true,
          "internalType": "address",
          "name": "owner",
          "type": "address"
        },
        {
          "indexed": true,
          "internalType": "address",
          "name": "approved",
          "type": "address"
        },
        {
          "indexed": true,
          "internalType": "uint256",
          "name": "tokenId",
          "type": "uint256"
        }
      ],
      "name": "Approval",
      "type": "event"
    },
    {
      "anonymous": false,
      "inputs": [
        {
          "indexed": true,
          "internalType": "address",
          "name": "owner",
          "type": "address"
        },
        {
          "indexed": true,
          "internalType": "address",
          "name": "operator",
          "type": "address"
        },
        {
          "indexed": false,
          "internalType": "bool",
          "name": "approved",
          "type": "bool"
        }
      ],
      "name": "ApprovalForAll",
      "type": "event"
    },
    {
      "anonymous": false,
      "inputs": [
        {
          "indexed": true,
          "internalType": "address",
          "name": "from",
          "type": "address"
        },
        {
          "indexed": true,
          "internalType": "address",
          "name": "to",
          "type": "address"
        },
        {
          "indexed": true,
          "internalType": "uint256",
          "name": "tokenId",
          "type": "uint256"
        }
      ],
      "name": "Transfer",
      "type": "event"
    },
    {
      "inputs": [
        {
          "internalType": "address",
          "name": "",
          "type": "address"
        }
      ],
      "name": "addressToId",
      "outputs": [
        {
          "internalType": "uint256",
          "name": "",
          "type": "uint256"
        }
      ],
      "stateMutability": "view",
      "type": "function"
    },
    {
      "inputs": [
        {
          "internalType": "address",
          "name": "to",
          "type": "address"
        },
        {
          "internalType": "uint256",
          "name": "tokenId",
          "type": "uint256"
        }
      ],
      "name": "approve",
      "outputs": [],
      "stateMutability": "nonpayable",
      "type": "function"
    },
    {
      "inputs": [
        {
          "internalType": "address",
          "name": "owner",
          "type": "address"
        }
      ],
      "name": "balanceOf",
      "outputs": [
        {
          "internalType": "uint256",
          "name": "",
          "type": "uint256"
        }
      ],
      "stateMutability": "view",
      "type": "function"
    },
    {
      "inputs": [
        {
          "internalType": "address",
          "name": "",
          "type": "address"
        }
      ],
      "name": "donatedAmount",
      "outputs": [
        {
          "internalType": "uint256",
          "name": "",
          "type": "uint256"
        }
      ],
      "stateMutability": "view",
      "type": "function"
    },
    {
      "inputs": [
        {
          "internalType": "uint256",
          "name": "",
          "type": "uint256"
        }
      ],
      "name": "donatedInfo",
      "outputs": [
        {
          "internalType": "uint256",
          "name": "id",
          "type": "uint256"
        },
        {
          "internalType": "string",
          "name": "name",
          "type": "string"
        },
        {
          "internalType": "string",
          "name": "title",
          "type": "string"
        },
        {
          "internalType": "string",
          "name": "definition",
          "type": "string"
        },
        {
          "internalType": "address",
          "name": "donatedAddress",
          "type": "address"
        },
        {
          "internalType": "uint256",
          "name": "requiredAmount",
          "type": "uint256"
        },
        {
          "internalType": "uint256",
          "name": "requiredDate",
          "type": "uint256"
        }
      ],
      "stateMutability": "view",
      "type": "function"
    },
    {
      "inputs": [
        {
          "internalType": "address",
          "name": "",
          "type": "address"
        },
        {
          "internalType": "uint256",
          "name": "",
          "type": "uint256"
        }
      ],
      "name": "donatedToDonators",
      "outputs": [
        {
          "internalType": "address",
          "name": "",
          "type": "address"
        }
      ],
      "stateMutability": "view",
      "type": "function"
    },
    {
      "inputs": [
        {
          "internalType": "address",
          "name": "",
          "type": "address"
        },
        {
          "internalType": "uint256",
          "name": "",
          "type": "uint256"
        }
      ],
      "name": "donatedToDonatorsNFT",
      "outputs": [
        {
          "internalType": "address",
          "name": "",
          "type": "address"
        }
      ],
      "stateMutability": "view",
      "type": "function"
    },
    {
      "inputs": [
        {
          "internalType": "address",
          "name": "",
          "type": "address"
        },
        {
          "internalType": "address",
          "name": "",
          "type": "address"
        }
      ],
      "name": "donatorAmount",
      "outputs": [
        {
          "internalType": "uint256",
          "name": "",
          "type": "uint256"
        }
      ],
      "stateMutability": "view",
      "type": "function"
    },
    {
      "inputs": [
        {
          "internalType": "address",
          "name": "",
          "type": "address"
        },
        {
          "internalType": "address",
          "name": "",
          "type": "address"
        }
      ],
      "name": "donatorAmountNFT",
      "outputs": [
        {
          "internalType": "uint256",
          "name": "",
          "type": "uint256"
        }
      ],
      "stateMutability": "view",
      "type": "function"
    },
    {
      "inputs": [
        {
          "internalType": "address",
          "name": "",
          "type": "address"
        },
        {
          "internalType": "uint256",
          "name": "",
          "type": "uint256"
        }
      ],
      "name": "donatorToTokenId",
      "outputs": [
        {
          "internalType": "uint256",
          "name": "",
          "type": "uint256"
        }
      ],
      "stateMutability": "view",
      "type": "function"
    },
    {
      "inputs": [
        {
          "internalType": "address",
          "name": "",
          "type": "address"
        }
      ],
      "name": "donatorsURI",
      "outputs": [
        {
          "internalType": "string",
          "name": "",
          "type": "string"
        }
      ],
      "stateMutability": "view",
      "type": "function"
    },
    {
      "inputs": [
        {
          "internalType": "uint256",
          "name": "",
          "type": "uint256"
        }
      ],
      "name": "funders",
      "outputs": [
        {
          "internalType": "address",
          "name": "",
          "type": "address"
        }
      ],
      "stateMutability": "view",
      "type": "function"
    },
    {
      "inputs": [
        {
          "internalType": "uint256",
          "name": "",
          "type": "uint256"
        }
      ],
      "name": "fundersNFT",
      "outputs": [
        {
          "internalType": "address",
          "name": "",
          "type": "address"
        }
      ],
      "stateMutability": "view",
      "type": "function"
    },
    {
      "inputs": [
        {
          "internalType": "uint256",
          "name": "tokenId",
          "type": "uint256"
        }
      ],
      "name": "getApproved",
      "outputs": [
        {
          "internalType": "address",
          "name": "",
          "type": "address"
        }
      ],
      "stateMutability": "view",
      "type": "function"
    },
    {
      "inputs": [
        {
          "internalType": "address",
          "name": "owner",
          "type": "address"
        },
        {
          "internalType": "address",
          "name": "operator",
          "type": "address"
        }
      ],
      "name": "isApprovedForAll",
      "outputs": [
        {
          "internalType": "bool",
          "name": "",
          "type": "bool"
        }
      ],
      "stateMutability": "view",
      "type": "function"
    },
    {
      "inputs": [],
      "name": "name",
      "outputs": [
        {
          "internalType": "string",
          "name": "",
          "type": "string"
        }
      ],
      "stateMutability": "view",
      "type": "function"
    },
    {
      "inputs": [
        {
          "internalType": "uint256",
          "name": "tokenId",
          "type": "uint256"
        }
      ],
      "name": "ownerOf",
      "outputs": [
        {
          "internalType": "address",
          "name": "",
          "type": "address"
        }
      ],
      "stateMutability": "view",
      "type": "function"
    },
    {
      "inputs": [
        {
          "internalType": "address",
          "name": "from",
          "type": "address"
        },
        {
          "internalType": "address",
          "name": "to",
          "type": "address"
        },
        {
          "internalType": "uint256",
          "name": "tokenId",
          "type": "uint256"
        }
      ],
      "name": "safeTransferFrom",
      "outputs": [],
      "stateMutability": "nonpayable",
      "type": "function"
    },
    {
      "inputs": [
        {
          "internalType": "address",
          "name": "from",
          "type": "address"
        },
        {
          "internalType": "address",
          "name": "to",
          "type": "address"
        },
        {
          "internalType": "uint256",
          "name": "tokenId",
          "type": "uint256"
        },
        {
          "internalType": "bytes",
          "name": "_data",
          "type": "bytes"
        }
      ],
      "name": "safeTransferFrom",
      "outputs": [],
      "stateMutability": "nonpayable",
      "type": "function"
    },
    {
      "inputs": [
        {
          "internalType": "address",
          "name": "operator",
          "type": "address"
        },
        {
          "internalType": "bool",
          "name": "approved",
          "type": "bool"
        }
      ],
      "name": "setApprovalForAll",
      "outputs": [],
      "stateMutability": "nonpayable",
      "type": "function"
    },
    {
      "inputs": [
        {
          "internalType": "bytes4",
          "name": "interfaceId",
          "type": "bytes4"
        }
      ],
      "name": "supportsInterface",
      "outputs": [
        {
          "internalType": "bool",
          "name": "",
          "type": "bool"
        }
      ],
      "stateMutability": "view",
      "type": "function"
    },
    {
      "inputs": [],
      "name": "symbol",
      "outputs": [
        {
          "internalType": "string",
          "name": "",
          "type": "string"
        }
      ],
      "stateMutability": "view",
      "type": "function"
    },
    {
      "inputs": [
        {
          "internalType": "uint256",
          "name": "tokenId",
          "type": "uint256"
        }
      ],
      "name": "tokenURI",
      "outputs": [
        {
          "internalType": "string",
          "name": "",
          "type": "string"
        }
      ],
      "stateMutability": "view",
      "type": "function"
    },
    {
      "inputs": [
        {
          "internalType": "address",
          "name": "from",
          "type": "address"
        },
        {
          "internalType": "address",
          "name": "to",
          "type": "address"
        },
        {
          "internalType": "uint256",
          "name": "tokenId",
          "type": "uint256"
        }
      ],
      "name": "transferFrom",
      "outputs": [],
      "stateMutability": "nonpayable",
      "type": "function"
    },
    {
      "inputs": [],
      "name": "withdrawDue",
      "outputs": [
        {
          "internalType": "uint256",
          "name": "",
          "type": "uint256"
        }
      ],
      "stateMutability": "view",
      "type": "function"
    }
  ],
  "bytecode": "0x608060405262093a806008553480156200001857600080fd5b506040518060400160405280600681526020017f46756e644d6500000000000000000000000000000000000000000000000000008152506040518060400160405280600281526020017f464d00000000000000000000000000000000000000000000000000000000000081525081600090805190602001906200009d929190620000bf565b508060019080519060200190620000b6929190620000bf565b505050620001d4565b828054620000cd906200016f565b90600052602060002090601f016020900481019282620000f157600085556200013d565b82601f106200010c57805160ff19168380011785556200013d565b828001600101855582156200013d579182015b828111156200013c5782518255916020019190600101906200011f565b5b5090506200014c919062000150565b5090565b5b808211156200016b57600081600090555060010162000151565b5090565b600060028204905060018216806200018857607f821691505b602082108114156200019f576200019e620001a5565b5b50919050565b7f4e487b7100000000000000000000000000000000000000000000000000000000600052602260045260246000fd5b612d7c80620001e46000396000f3fe608060405234801561001057600080fd5b50600436106101735760003560e01c80636352211e116100de578063b88d4fde11610097578063cc7400af11610071578063cc7400af146104d4578063dc0d3dff14610504578063e985e9c514610534578063f85a99541461056457610173565b8063b88d4fde14610458578063c87b56dd14610474578063cb0e0d7d146104a457610173565b80636352211e146103705780636bdde0d5146103a057806370a08231146103be57806395c083de146103ee57806395d89b411461041e578063a22cb4651461043c57610173565b806323b872dd1161013057806323b872dd146102785780632b76e16a146102945780632c29139d146102c457806342842e0e146102f457806348931096146103105780635cac62271461034057610173565b806301ffc9a714610178578063022f6388146101a857806306fdde03146101d8578063081812fc146101f6578063095ea7b31461022657806312546f6a14610242575b600080fd5b610192600480360381019061018d9190611f40565b610594565b60405161019f91906122dd565b60405180910390f35b6101c260048036038101906101bd9190611d99565b610676565b6040516101cf91906124ba565b60405180910390f35b6101e061068e565b6040516101ed91906122f8565b60405180910390f35b610210600480360381019061020b9190611f92565b610720565b60405161021d9190612276565b60405180910390f35b610240600480360381019061023b9190611f04565b6107a5565b005b61025c60048036038101906102579190611f92565b6108bd565b60405161026f97969594939291906124d5565b60405180910390f35b610292600480360381019061028d9190611dfe565b610ac7565b005b6102ae60048036038101906102a99190611f04565b610b27565b6040516102bb9190612276565b60405180910390f35b6102de60048036038101906102d99190611dc2565b610b75565b6040516102eb91906124ba565b60405180910390f35b61030e60048036038101906103099190611dfe565b610b9a565b005b61032a60048036038101906103259190611dc2565b610bba565b60405161033791906124ba565b60405180910390f35b61035a60048036038101906103559190611f04565b610bdf565b60405161036791906124ba565b60405180910390f35b61038a60048036038101906103859190611f92565b610c10565b6040516103979190612276565b60405180910390f35b6103a8610cc2565b6040516103b591906124ba565b60405180910390f35b6103d860048036038101906103d39190611d99565b610cc8565b6040516103e591906124ba565b60405180910390f35b61040860048036038101906104039190611f92565b610d80565b6040516104159190612276565b60405180910390f35b610426610dbf565b60405161043391906122f8565b60405180910390f35b61045660048036038101906104519190611ec8565b610e51565b005b610472600480360381019061046d9190611e4d565b610e67565b005b61048e60048036038101906104899190611f92565b610ec9565b60405161049b91906122f8565b60405180910390f35b6104be60048036038101906104b99190611d99565b61101b565b6040516104cb91906124ba565b60405180910390f35b6104ee60048036038101906104e99190611d99565b611033565b6040516104fb91906122f8565b60405180910390f35b61051e60048036038101906105199190611f92565b6110d3565b60405161052b9190612276565b60405180910390f35b61054e60048036038101906105499190611dc2565b611112565b60405161055b91906122dd565b60405180910390f35b61057e60048036038101906105799190611f04565b6111a6565b60405161058b9190612276565b60405180910390f35b60007f80ac58cd000000000000000000000000000000000000000000000000000000007bffffffffffffffffffffffffffffffffffffffffffffffffffffffff1916827bffffffffffffffffffffffffffffffffffffffffffffffffffffffff1916148061065f57507f5b5e139f000000000000000000000000000000000000000000000000000000007bffffffffffffffffffffffffffffffffffffffffffffffffffffffff1916827bffffffffffffffffffffffffffffffffffffffffffffffffffffffff1916145b8061066f575061066e826111f4565b5b9050919050565b600c6020528060005260406000206000915090505481565b60606000805461069d90612763565b80601f01602080910402602001604051908101604052809291908181526020018280546106c990612763565b80156107165780601f106106eb57610100808354040283529160200191610716565b820191906000526020600020905b8154815290600101906020018083116106f957829003601f168201915b5050505050905090565b600061072b8261125e565b61076a576040517f08c379a00000000000000000000000000000000000000000000000000000000081526004016107619061243a565b60405180910390fd5b6004600083815260200190815260200160002060009054906101000a900473ffffffffffffffffffffffffffffffffffffffff169050919050565b60006107b082610c10565b90508073ffffffffffffffffffffffffffffffffffffffff168373ffffffffffffffffffffffffffffffffffffffff161415610821576040517f08c379a00000000000000000000000000000000000000000000000000000000081526004016108189061247a565b60405180910390fd5b8073ffffffffffffffffffffffffffffffffffffffff166108406112ca565b73ffffffffffffffffffffffffffffffffffffffff16148061086f575061086e816108696112ca565b611112565b5b6108ae576040517f08c379a00000000000000000000000000000000000000000000000000000000081526004016108a5906123ba565b60405180910390fd5b6108b883836112d2565b505050565b600981815481106108cd57600080fd5b90600052602060002090600702016000915090508060000154908060010180546108f690612763565b80601f016020809104026020016040519081016040528092919081815260200182805461092290612763565b801561096f5780601f106109445761010080835404028352916020019161096f565b820191906000526020600020905b81548152906001019060200180831161095257829003601f168201915b50505050509080600201805461098490612763565b80601f01602080910402602001604051908101604052809291908181526020018280546109b090612763565b80156109fd5780601f106109d2576101008083540402835291602001916109fd565b820191906000526020600020905b8154815290600101906020018083116109e057829003601f168201915b505050505090806003018054610a1290612763565b80601f0160208091040260200160405190810160405280929190818152602001828054610a3e90612763565b8015610a8b5780601f10610a6057610100808354040283529160200191610a8b565b820191906000526020600020905b815481529060010190602001808311610a6e57829003601f168201915b5050505050908060040160009054906101000a900473ffffffffffffffffffffffffffffffffffffffff16908060050154908060060154905087565b610ad8610ad26112ca565b8261138b565b610b17576040517f08c379a0000000000000000000000000000000000000000000000000000000008152600401610b0e9061249a565b60405180910390fd5b610b22838383611469565b505050565b60116020528160005260406000208181548110610b4357600080fd5b906000526020600020016000915091509054906101000a900473ffffffffffffffffffffffffffffffffffffffff1681565b600e602052816000526040600020602052806000526040600020600091509150505481565b610bb583838360405180602001604052806000815250610e67565b505050565b600d602052816000526040600020602052806000526040600020600091509150505481565b60136020528160005260406000208181548110610bfb57600080fd5b90600052602060002001600091509150505481565b6000806002600084815260200190815260200160002060009054906101000a900473ffffffffffffffffffffffffffffffffffffffff169050600073ffffffffffffffffffffffffffffffffffffffff168173ffffffffffffffffffffffffffffffffffffffff161415610cb9576040517f08c379a0000000000000000000000000000000000000000000000000000000008152600401610cb0906123fa565b60405180910390fd5b80915050919050565b60085481565b60008073ffffffffffffffffffffffffffffffffffffffff168273ffffffffffffffffffffffffffffffffffffffff161415610d39576040517f08c379a0000000000000000000000000000000000000000000000000000000008152600401610d30906123da565b60405180910390fd5b600360008373ffffffffffffffffffffffffffffffffffffffff1673ffffffffffffffffffffffffffffffffffffffff168152602001908152602001600020549050919050565b600b8181548110610d9057600080fd5b906000526020600020016000915054906101000a900473ffffffffffffffffffffffffffffffffffffffff1681565b606060018054610dce90612763565b80601f0160208091040260200160405190810160405280929190818152602001828054610dfa90612763565b8015610e475780601f10610e1c57610100808354040283529160200191610e47565b820191906000526020600020905b815481529060010190602001808311610e2a57829003601f168201915b5050505050905090565b610e63610e5c6112ca565b83836116d0565b5050565b610e78610e726112ca565b8361138b565b610eb7576040517f08c379a0000000000000000000000000000000000000000000000000000000008152600401610eae9061249a565b60405180910390fd5b610ec38484848461183d565b50505050565b6060610ed48261125e565b610f13576040517f08c379a0000000000000000000000000000000000000000000000000000000008152600401610f0a9061241a565b60405180910390fd5b6000600660008481526020019081526020016000208054610f3390612763565b80601f0160208091040260200160405190810160405280929190818152602001828054610f5f90612763565b8015610fac5780601f10610f8157610100808354040283529160200191610fac565b820191906000526020600020905b815481529060010190602001808311610f8f57829003601f168201915b505050505090506000610fbd611899565b9050600081511415610fd3578192505050611016565b600082511115611008578082604051602001610ff0929190612252565b60405160208183030381529060405292505050611016565b611011846118b0565b925050505b919050565b600f6020528060005260406000206000915090505481565b6012602052806000526040600020600091509050805461105290612763565b80601f016020809104026020016040519081016040528092919081815260200182805461107e90612763565b80156110cb5780601f106110a0576101008083540402835291602001916110cb565b820191906000526020600020905b8154815290600101906020018083116110ae57829003601f168201915b505050505081565b600a81815481106110e357600080fd5b906000526020600020016000915054906101000a900473ffffffffffffffffffffffffffffffffffffffff1681565b6000600560008473ffffffffffffffffffffffffffffffffffffffff1673ffffffffffffffffffffffffffffffffffffffff16815260200190815260200160002060008373ffffffffffffffffffffffffffffffffffffffff1673ffffffffffffffffffffffffffffffffffffffff16815260200190815260200160002060009054906101000a900460ff16905092915050565b601060205281600052604060002081815481106111c257600080fd5b906000526020600020016000915091509054906101000a900473ffffffffffffffffffffffffffffffffffffffff1681565b60007f01ffc9a7000000000000000000000000000000000000000000000000000000007bffffffffffffffffffffffffffffffffffffffffffffffffffffffff1916827bffffffffffffffffffffffffffffffffffffffffffffffffffffffff1916149050919050565b60008073ffffffffffffffffffffffffffffffffffffffff166002600084815260200190815260200160002060009054906101000a900473ffffffffffffffffffffffffffffffffffffffff1673ffffffffffffffffffffffffffffffffffffffff1614159050919050565b600033905090565b816004600083815260200190815260200160002060006101000a81548173ffffffffffffffffffffffffffffffffffffffff021916908373ffffffffffffffffffffffffffffffffffffffff160217905550808273ffffffffffffffffffffffffffffffffffffffff1661134583610c10565b73ffffffffffffffffffffffffffffffffffffffff167f8c5be1e5ebec7d5bd14f71427d1e84f3dd0314c0f7b2291e5b200ac8c7c3b92560405160405180910390a45050565b60006113968261125e565b6113d5576040517f08c379a00000000000000000000000000000000000000000000000000000000081526004016113cc9061239a565b60405180910390fd5b60006113e083610c10565b90508073ffffffffffffffffffffffffffffffffffffffff168473ffffffffffffffffffffffffffffffffffffffff16148061142257506114218185611112565b5b8061146057508373ffffffffffffffffffffffffffffffffffffffff1661144884610720565b73ffffffffffffffffffffffffffffffffffffffff16145b91505092915050565b8273ffffffffffffffffffffffffffffffffffffffff1661148982610c10565b73ffffffffffffffffffffffffffffffffffffffff16146114df576040517f08c379a00000000000000000000000000000000000000000000000000000000081526004016114d69061233a565b60405180910390fd5b600073ffffffffffffffffffffffffffffffffffffffff168273ffffffffffffffffffffffffffffffffffffffff16141561154f576040517f08c379a00000000000000000000000000000000000000000000000000000000081526004016115469061235a565b60405180910390fd5b61155a838383611957565b6115656000826112d2565b6001600360008573ffffffffffffffffffffffffffffffffffffffff1673ffffffffffffffffffffffffffffffffffffffff16815260200190815260200160002060008282546115b59190612679565b925050819055506001600360008473ffffffffffffffffffffffffffffffffffffffff1673ffffffffffffffffffffffffffffffffffffffff168152602001908152602001600020600082825461160c91906125f2565b92505081905550816002600083815260200190815260200160002060006101000a81548173ffffffffffffffffffffffffffffffffffffffff021916908373ffffffffffffffffffffffffffffffffffffffff160217905550808273ffffffffffffffffffffffffffffffffffffffff168473ffffffffffffffffffffffffffffffffffffffff167fddf252ad1be2c89b69c2b068fc378daa952ba7f163c4a11628f55a4df523b3ef60405160405180910390a46116cb83838361195c565b505050565b8173ffffffffffffffffffffffffffffffffffffffff168373ffffffffffffffffffffffffffffffffffffffff16141561173f576040517f08c379a00000000000000000000000000000000000000000000000000000000081526004016117369061237a565b60405180910390fd5b80600560008573ffffffffffffffffffffffffffffffffffffffff1673ffffffffffffffffffffffffffffffffffffffff16815260200190815260200160002060008473ffffffffffffffffffffffffffffffffffffffff1673ffffffffffffffffffffffffffffffffffffffff16815260200190815260200160002060006101000a81548160ff0219169083151502179055508173ffffffffffffffffffffffffffffffffffffffff168373ffffffffffffffffffffffffffffffffffffffff167f17307eab39ab6107e8899845ad3d59bd9653f200f220920489ca2b5937696c318360405161183091906122dd565b60405180910390a3505050565b611848848484611469565b61185484848484611961565b611893576040517f08c379a000000000000000000000000000000000000000000000000000000000815260040161188a9061231a565b60405180910390fd5b50505050565b606060405180602001604052806000815250905090565b60606118bb8261125e565b6118fa576040517f08c379a00000000000000000000000000000000000000000000000000000000081526004016118f19061245a565b60405180910390fd5b6000611904611899565b90506000815111611924576040518060200160405280600081525061194f565b8061192e84611af8565b60405160200161193f929190612252565b6040516020818303038152906040525b915050919050565b505050565b505050565b60006119828473ffffffffffffffffffffffffffffffffffffffff16611ca5565b15611aeb578373ffffffffffffffffffffffffffffffffffffffff1663150b7a026119ab6112ca565b8786866040518563ffffffff1660e01b81526004016119cd9493929190612291565b602060405180830381600087803b1580156119e757600080fd5b505af1925050508015611a1857506040513d601f19601f82011682018060405250810190611a159190611f69565b60015b611a9b573d8060008114611a48576040519150601f19603f3d011682016040523d82523d6000602084013e611a4d565b606091505b50600081511415611a93576040517f08c379a0000000000000000000000000000000000000000000000000000000008152600401611a8a9061231a565b60405180910390fd5b805181602001fd5b63150b7a0260e01b7bffffffffffffffffffffffffffffffffffffffffffffffffffffffff1916817bffffffffffffffffffffffffffffffffffffffffffffffffffffffff191614915050611af0565b600190505b949350505050565b60606000821415611b40576040518060400160405280600181526020017f30000000000000000000000000000000000000000000000000000000000000008152509050611ca0565b600082905060005b60008214611b72578080611b5b906127c6565b915050600a82611b6b9190612648565b9150611b48565b60008167ffffffffffffffff811115611bb4577f4e487b7100000000000000000000000000000000000000000000000000000000600052604160045260246000fd5b6040519080825280601f01601f191660200182016040528015611be65781602001600182028036833780820191505090505b5090505b60008514611c9957600182611bff9190612679565b9150600a85611c0e919061280f565b6030611c1a91906125f2565b60f81b818381518110611c56577f4e487b7100000000000000000000000000000000000000000000000000000000600052603260045260246000fd5b60200101907effffffffffffffffffffffffffffffffffffffffffffffffffffffffffffff1916908160001a905350600a85611c929190612648565b9450611bea565b8093505050505b919050565b6000808273ffffffffffffffffffffffffffffffffffffffff163b119050919050565b6000611cdb611cd68461257e565b612559565b905082815260208101848484011115611cf357600080fd5b611cfe848285612721565b509392505050565b600081359050611d1581612cea565b92915050565b600081359050611d2a81612d01565b92915050565b600081359050611d3f81612d18565b92915050565b600081519050611d5481612d18565b92915050565b600082601f830112611d6b57600080fd5b8135611d7b848260208601611cc8565b91505092915050565b600081359050611d9381612d2f565b92915050565b600060208284031215611dab57600080fd5b6000611db984828501611d06565b91505092915050565b60008060408385031215611dd557600080fd5b6000611de385828601611d06565b9250506020611df485828601611d06565b9150509250929050565b600080600060608486031215611e1357600080fd5b6000611e2186828701611d06565b9350506020611e3286828701611d06565b9250506040611e4386828701611d84565b9150509250925092565b60008060008060808587031215611e6357600080fd5b6000611e7187828801611d06565b9450506020611e8287828801611d06565b9350506040611e9387828801611d84565b925050606085013567ffffffffffffffff811115611eb057600080fd5b611ebc87828801611d5a565b91505092959194509250565b60008060408385031215611edb57600080fd5b6000611ee985828601611d06565b9250506020611efa85828601611d1b565b9150509250929050565b60008060408385031215611f1757600080fd5b6000611f2585828601611d06565b9250506020611f3685828601611d84565b9150509250929050565b600060208284031215611f5257600080fd5b6000611f6084828501611d30565b91505092915050565b600060208284031215611f7b57600080fd5b6000611f8984828501611d45565b91505092915050565b600060208284031215611fa457600080fd5b6000611fb284828501611d84565b91505092915050565b611fc4816126ad565b82525050565b611fd3816126bf565b82525050565b6000611fe4826125af565b611fee81856125c5565b9350611ffe818560208601612730565b612007816128fc565b840191505092915050565b600061201d826125ba565b61202781856125d6565b9350612037818560208601612730565b612040816128fc565b840191505092915050565b6000612056826125ba565b61206081856125e7565b9350612070818560208601612730565b80840191505092915050565b60006120896032836125d6565b91506120948261290d565b604082019050919050565b60006120ac6025836125d6565b91506120b78261295c565b604082019050919050565b60006120cf6024836125d6565b91506120da826129ab565b604082019050919050565b60006120f26019836125d6565b91506120fd826129fa565b602082019050919050565b6000612115602c836125d6565b915061212082612a23565b604082019050919050565b60006121386038836125d6565b915061214382612a72565b604082019050919050565b600061215b602a836125d6565b915061216682612ac1565b604082019050919050565b600061217e6029836125d6565b915061218982612b10565b604082019050919050565b60006121a16031836125d6565b91506121ac82612b5f565b604082019050919050565b60006121c4602c836125d6565b91506121cf82612bae565b604082019050919050565b60006121e7602f836125d6565b91506121f282612bfd565b604082019050919050565b600061220a6021836125d6565b915061221582612c4c565b604082019050919050565b600061222d6031836125d6565b915061223882612c9b565b604082019050919050565b61224c81612717565b82525050565b600061225e828561204b565b915061226a828461204b565b91508190509392505050565b600060208201905061228b6000830184611fbb565b92915050565b60006080820190506122a66000830187611fbb565b6122b36020830186611fbb565b6122c06040830185612243565b81810360608301526122d28184611fd9565b905095945050505050565b60006020820190506122f26000830184611fca565b92915050565b600060208201905081810360008301526123128184612012565b905092915050565b600060208201905081810360008301526123338161207c565b9050919050565b600060208201905081810360008301526123538161209f565b9050919050565b60006020820190508181036000830152612373816120c2565b9050919050565b60006020820190508181036000830152612393816120e5565b9050919050565b600060208201905081810360008301526123b381612108565b9050919050565b600060208201905081810360008301526123d38161212b565b9050919050565b600060208201905081810360008301526123f38161214e565b9050919050565b6000602082019050818103600083015261241381612171565b9050919050565b6000602082019050818103600083015261243381612194565b9050919050565b60006020820190508181036000830152612453816121b7565b9050919050565b60006020820190508181036000830152612473816121da565b9050919050565b60006020820190508181036000830152612493816121fd565b9050919050565b600060208201905081810360008301526124b381612220565b9050919050565b60006020820190506124cf6000830184612243565b92915050565b600060e0820190506124ea600083018a612243565b81810360208301526124fc8189612012565b905081810360408301526125108188612012565b905081810360608301526125248187612012565b90506125336080830186611fbb565b61254060a0830185612243565b61254d60c0830184612243565b98975050505050505050565b6000612563612574565b905061256f8282612795565b919050565b6000604051905090565b600067ffffffffffffffff821115612599576125986128cd565b5b6125a2826128fc565b9050602081019050919050565b600081519050919050565b600081519050919050565b600082825260208201905092915050565b600082825260208201905092915050565b600081905092915050565b60006125fd82612717565b915061260883612717565b9250827fffffffffffffffffffffffffffffffffffffffffffffffffffffffffffffffff0382111561263d5761263c612840565b5b828201905092915050565b600061265382612717565b915061265e83612717565b92508261266e5761266d61286f565b5b828204905092915050565b600061268482612717565b915061268f83612717565b9250828210156126a2576126a1612840565b5b828203905092915050565b60006126b8826126f7565b9050919050565b60008115159050919050565b60007fffffffff0000000000000000000000000000000000000000000000000000000082169050919050565b600073ffffffffffffffffffffffffffffffffffffffff82169050919050565b6000819050919050565b82818337600083830152505050565b60005b8381101561274e578082015181840152602081019050612733565b8381111561275d576000848401525b50505050565b6000600282049050600182168061277b57607f821691505b6020821081141561278f5761278e61289e565b5b50919050565b61279e826128fc565b810181811067ffffffffffffffff821117156127bd576127bc6128cd565b5b80604052505050565b60006127d182612717565b91507fffffffffffffffffffffffffffffffffffffffffffffffffffffffffffffffff82141561280457612803612840565b5b600182019050919050565b600061281a82612717565b915061282583612717565b9250826128355761283461286f565b5b828206905092915050565b7f4e487b7100000000000000000000000000000000000000000000000000000000600052601160045260246000fd5b7f4e487b7100000000000000000000000000000000000000000000000000000000600052601260045260246000fd5b7f4e487b7100000000000000000000000000000000000000000000000000000000600052602260045260246000fd5b7f4e487b7100000000000000000000000000000000000000000000000000000000600052604160045260246000fd5b6000601f19601f8301169050919050565b7f4552433732313a207472616e7366657220746f206e6f6e20455243373231526560008201527f63656976657220696d706c656d656e7465720000000000000000000000000000602082015250565b7f4552433732313a207472616e736665722066726f6d20696e636f72726563742060008201527f6f776e6572000000000000000000000000000000000000000000000000000000602082015250565b7f4552433732313a207472616e7366657220746f20746865207a65726f2061646460008201527f7265737300000000000000000000000000000000000000000000000000000000602082015250565b7f4552433732313a20617070726f766520746f2063616c6c657200000000000000600082015250565b7f4552433732313a206f70657261746f7220717565727920666f72206e6f6e657860008201527f697374656e7420746f6b656e0000000000000000000000000000000000000000602082015250565b7f4552433732313a20617070726f76652063616c6c6572206973206e6f74206f7760008201527f6e6572206e6f7220617070726f76656420666f7220616c6c0000000000000000602082015250565b7f4552433732313a2062616c616e636520717565727920666f7220746865207a6560008201527f726f206164647265737300000000000000000000000000000000000000000000602082015250565b7f4552433732313a206f776e657220717565727920666f72206e6f6e657869737460008201527f656e7420746f6b656e0000000000000000000000000000000000000000000000602082015250565b7f45524337323155524953746f726167653a2055524920717565727920666f722060008201527f6e6f6e6578697374656e7420746f6b656e000000000000000000000000000000602082015250565b7f4552433732313a20617070726f76656420717565727920666f72206e6f6e657860008201527f697374656e7420746f6b656e0000000000000000000000000000000000000000602082015250565b7f4552433732314d657461646174613a2055524920717565727920666f72206e6f60008201527f6e6578697374656e7420746f6b656e0000000000000000000000000000000000602082015250565b7f4552433732313a20617070726f76616c20746f2063757272656e74206f776e6560008201527f7200000000000000000000000000000000000000000000000000000000000000602082015250565b7f4552433732313a207472616e736665722063616c6c6572206973206e6f74206f60008201527f776e6572206e6f7220617070726f766564000000000000000000000000000000602082015250565b612cf3816126ad565b8114612cfe57600080fd5b50565b612d0a816126bf565b8114612d1557600080fd5b50565b612d21816126cb565b8114612d2c57600080fd5b50565b612d3881612717565b8114612d4357600080fd5b5056fea2646970667358221220ac98b0c62845d5569f4e8a3b4bac53314c30619b4110d10bf0b6313c6017069164736f6c63430008010033",
  "immutableReferences": {},
  "source": "// SPDX-License-Identifier: MIT\r\n\r\npragma solidity ^0.8.0;\r\n\r\nimport \"@openzeppelin/contracts/token/ERC721/extensions/ERC721URIStorage.sol\";\r\nimport \"@openzeppelin/contracts/utils/Counters.sol\";\r\n\r\n\r\ncontract Collectible is ERC721URIStorage {\r\n\r\n    using Counters for Counters.Counter;\r\n   Counters.Counter private _tokenIds;\r\n\r\n   uint256 public withdrawDue = 7 days;\r\n\r\n\r\n   struct Donated{\r\n    uint256 id;\r\n    string name;\r\n    string title;\r\n    string definition;\r\n    address donatedAddress;\r\n    uint256 requiredAmount;\r\n    uint256 requiredDate;\r\n  }\r\n\r\n   \r\n\r\n  Donated[] public donatedInfo;\r\n\r\n  address[] public funders;\r\n  address[] public fundersNFT;\r\n\r\n  mapping(address => uint256) public donatedAmount; // @param donated address @value how much money donated for this project\r\n  mapping(address => mapping(address => uint256)) public donatorAmount;   // @param1 donated address @param2 donator address @value amount\r\n  mapping(address => mapping(address => uint256)) public donatorAmountNFT;  // @param1 donated address @param2 donator address @value amount (for nft)\r\n  mapping(address => uint256) public addressToId; \r\n  mapping(address => address[]) public donatedToDonators; // @param donated address @value donators array\r\n  mapping(address => address[]) public donatedToDonatorsNFT;  // @param donated address @value donators array (for nft)\r\n  mapping(address => string) public donatorsURI;\r\n  \r\n\r\n  mapping(address => uint256[]) public donatorToTokenId;\r\n   \r\n \r\n  constructor() ERC721(\"FundMe\", \"FM\")  {}\r\n\r\n \r\n   function mintNFT(string memory _tokenURI)\r\n       internal\r\n       {\r\n           _tokenIds.increment();\r\n           uint256 newItemId = _tokenIds.current();\r\n           _mint(msg.sender, newItemId);\r\n           _setTokenURI(newItemId, _tokenURI);\r\n           // console.log(\"The NFT ID %s has been minted to %s\", newItemId, msg.sender);\r\n           donatorToTokenId[msg.sender].push(newItemId);\r\n    }\r\n\r\n    function setTokenURI(string memory _tokenURI, address _ownerOfURI) internal{\r\n    string memory TokenURI = _tokenURI;\r\n    donatorsURI[_ownerOfURI] = TokenURI;\r\n  }\r\n\r\n  function handleDistribution(uint256 _id) internal {\r\n    address[] memory nftCollecters = donatedToDonatorsNFT[donatedInfo[_id].donatedAddress];\r\n    for(uint256 i = 0; i < nftCollecters.length; i++){      \r\n        mintNFT(donatorsURI[nftCollecters[i]]);     \r\n    }\r\n  }\r\n\r\n  \r\n\r\n\r\n}\r\n",
  "sourcePath": "C:\\Users\\ykerc\\OneDrive\\Masast\\tez_final\\contracts\\Collectible.sol",
  "compiler": {
    "name": "solc",
    "version": "0.8.1+commit.df193b15.Emscripten.clang"
  },
  "schemaVersion": "3.4.7",
  "updatedAt": "2022-05-27T08:01:45.385Z",
  "devdoc": {
    "kind": "dev",
    "methods": {
      "approve(address,uint256)": {
        "details": "See {IERC721-approve}."
      },
      "balanceOf(address)": {
        "details": "See {IERC721-balanceOf}."
      },
      "getApproved(uint256)": {
        "details": "See {IERC721-getApproved}."
      },
      "isApprovedForAll(address,address)": {
        "details": "See {IERC721-isApprovedForAll}."
      },
      "name()": {
        "details": "See {IERC721Metadata-name}."
      },
      "ownerOf(uint256)": {
        "details": "See {IERC721-ownerOf}."
      },
      "safeTransferFrom(address,address,uint256)": {
        "details": "See {IERC721-safeTransferFrom}."
      },
      "safeTransferFrom(address,address,uint256,bytes)": {
        "details": "See {IERC721-safeTransferFrom}."
      },
      "setApprovalForAll(address,bool)": {
        "details": "See {IERC721-setApprovalForAll}."
      },
      "supportsInterface(bytes4)": {
        "details": "See {IERC165-supportsInterface}."
      },
      "symbol()": {
        "details": "See {IERC721Metadata-symbol}."
      },
      "tokenURI(uint256)": {
        "details": "See {IERC721Metadata-tokenURI}."
      },
      "transferFrom(address,address,uint256)": {
        "details": "See {IERC721-transferFrom}."
      }
    },
    "version": 1
  },
  "userdoc": {
    "kind": "user",
    "methods": {},
    "version": 1
  }
}