{
  "contractName": "Funding",
  "abi": [
    {
      "inputs": [],
      "stateMutability": "nonpayable",
      "type": "constructor"
    },
    {
      "anonymous": false,
      "inputs": [
        {
          "indexed": true,
          "internalType": "address",
          "name": "owner",
          "type": "address"
        },
        {
          "indexed": true,
          "internalType": "address",
          "name": "approved",
          "type": "address"
        },
        {
          "indexed": true,
          "internalType": "uint256",
          "name": "tokenId",
          "type": "uint256"
        }
      ],
      "name": "Approval",
      "type": "event"
    },
    {
      "anonymous": false,
      "inputs": [
        {
          "indexed": true,
          "internalType": "address",
          "name": "owner",
          "type": "address"
        },
        {
          "indexed": true,
          "internalType": "address",
          "name": "operator",
          "type": "address"
        },
        {
          "indexed": false,
          "internalType": "bool",
          "name": "approved",
          "type": "bool"
        }
      ],
      "name": "ApprovalForAll",
      "type": "event"
    },
    {
      "anonymous": false,
      "inputs": [
        {
          "indexed": true,
          "internalType": "address",
          "name": "previousOwner",
          "type": "address"
        },
        {
          "indexed": true,
          "internalType": "address",
          "name": "newOwner",
          "type": "address"
        }
      ],
      "name": "OwnershipTransferred",
      "type": "event"
    },
    {
      "anonymous": false,
      "inputs": [
        {
          "indexed": true,
          "internalType": "address",
          "name": "from",
          "type": "address"
        },
        {
          "indexed": true,
          "internalType": "address",
          "name": "to",
          "type": "address"
        },
        {
          "indexed": true,
          "internalType": "uint256",
          "name": "tokenId",
          "type": "uint256"
        }
      ],
      "name": "Transfer",
      "type": "event"
    },
    {
      "anonymous": false,
      "inputs": [
        {
          "indexed": true,
          "internalType": "address",
          "name": "from",
          "type": "address"
        },
        {
          "indexed": true,
          "internalType": "uint256",
          "name": "id",
          "type": "uint256"
        },
        {
          "indexed": false,
          "internalType": "uint256",
          "name": "value",
          "type": "uint256"
        }
      ],
      "name": "Withdraw",
      "type": "event"
    },
    {
      "inputs": [
        {
          "internalType": "address",
          "name": "",
          "type": "address"
        }
      ],
      "name": "addressToId",
      "outputs": [
        {
          "internalType": "uint256",
          "name": "",
          "type": "uint256"
        }
      ],
      "stateMutability": "view",
      "type": "function",
      "constant": true
    },
    {
      "inputs": [
        {
          "internalType": "address",
          "name": "to",
          "type": "address"
        },
        {
          "internalType": "uint256",
          "name": "tokenId",
          "type": "uint256"
        }
      ],
      "name": "approve",
      "outputs": [],
      "stateMutability": "nonpayable",
      "type": "function"
    },
    {
      "inputs": [
        {
          "internalType": "address",
          "name": "owner",
          "type": "address"
        }
      ],
      "name": "balanceOf",
      "outputs": [
        {
          "internalType": "uint256",
          "name": "",
          "type": "uint256"
        }
      ],
      "stateMutability": "view",
      "type": "function",
      "constant": true
    },
    {
      "inputs": [
        {
          "internalType": "address",
          "name": "",
          "type": "address"
        }
      ],
      "name": "donatedAmount",
      "outputs": [
        {
          "internalType": "uint256",
          "name": "",
          "type": "uint256"
        }
      ],
      "stateMutability": "view",
      "type": "function",
      "constant": true
    },
    {
      "inputs": [
        {
          "internalType": "uint256",
          "name": "",
          "type": "uint256"
        }
      ],
      "name": "donatedInfo",
      "outputs": [
        {
          "internalType": "uint256",
          "name": "id",
          "type": "uint256"
        },
        {
          "internalType": "string",
          "name": "name",
          "type": "string"
        },
        {
          "internalType": "string",
          "name": "title",
          "type": "string"
        },
        {
          "internalType": "string",
          "name": "definition",
          "type": "string"
        },
        {
          "internalType": "address",
          "name": "donatedAddress",
          "type": "address"
        },
        {
          "internalType": "uint256",
          "name": "requiredAmount",
          "type": "uint256"
        },
        {
          "internalType": "uint256",
          "name": "requiredDate",
          "type": "uint256"
        }
      ],
      "stateMutability": "view",
      "type": "function",
      "constant": true
    },
    {
      "inputs": [
        {
          "internalType": "address",
          "name": "",
          "type": "address"
        },
        {
          "internalType": "uint256",
          "name": "",
          "type": "uint256"
        }
      ],
      "name": "donatedToDonators",
      "outputs": [
        {
          "internalType": "address",
          "name": "",
          "type": "address"
        }
      ],
      "stateMutability": "view",
      "type": "function",
      "constant": true
    },
    {
      "inputs": [
        {
          "internalType": "address",
          "name": "",
          "type": "address"
        },
        {
          "internalType": "uint256",
          "name": "",
          "type": "uint256"
        }
      ],
      "name": "donatedToDonatorsNFT",
      "outputs": [
        {
          "internalType": "address",
          "name": "",
          "type": "address"
        }
      ],
      "stateMutability": "view",
      "type": "function",
      "constant": true
    },
    {
      "inputs": [
        {
          "internalType": "address",
          "name": "",
          "type": "address"
        },
        {
          "internalType": "address",
          "name": "",
          "type": "address"
        }
      ],
      "name": "donatorAmount",
      "outputs": [
        {
          "internalType": "uint256",
          "name": "",
          "type": "uint256"
        }
      ],
      "stateMutability": "view",
      "type": "function",
      "constant": true
    },
    {
      "inputs": [
        {
          "internalType": "address",
          "name": "",
          "type": "address"
        },
        {
          "internalType": "address",
          "name": "",
          "type": "address"
        }
      ],
      "name": "donatorAmountNFT",
      "outputs": [
        {
          "internalType": "uint256",
          "name": "",
          "type": "uint256"
        }
      ],
      "stateMutability": "view",
      "type": "function",
      "constant": true
    },
    {
      "inputs": [
        {
          "internalType": "address",
          "name": "",
          "type": "address"
        },
        {
          "internalType": "uint256",
          "name": "",
          "type": "uint256"
        }
      ],
      "name": "donatorToTokenId",
      "outputs": [
        {
          "internalType": "uint256",
          "name": "",
          "type": "uint256"
        }
      ],
      "stateMutability": "view",
      "type": "function",
      "constant": true
    },
    {
      "inputs": [
        {
          "internalType": "address",
          "name": "",
          "type": "address"
        }
      ],
      "name": "donatorsURI",
      "outputs": [
        {
          "internalType": "string",
          "name": "",
          "type": "string"
        }
      ],
      "stateMutability": "view",
      "type": "function",
      "constant": true
    },
    {
      "inputs": [
        {
          "internalType": "uint256",
          "name": "",
          "type": "uint256"
        }
      ],
      "name": "funders",
      "outputs": [
        {
          "internalType": "address",
          "name": "",
          "type": "address"
        }
      ],
      "stateMutability": "view",
      "type": "function",
      "constant": true
    },
    {
      "inputs": [
        {
          "internalType": "uint256",
          "name": "",
          "type": "uint256"
        }
      ],
      "name": "fundersNFT",
      "outputs": [
        {
          "internalType": "address",
          "name": "",
          "type": "address"
        }
      ],
      "stateMutability": "view",
      "type": "function",
      "constant": true
    },
    {
      "inputs": [
        {
          "internalType": "uint256",
          "name": "tokenId",
          "type": "uint256"
        }
      ],
      "name": "getApproved",
      "outputs": [
        {
          "internalType": "address",
          "name": "",
          "type": "address"
        }
      ],
      "stateMutability": "view",
      "type": "function",
      "constant": true
    },
    {
      "inputs": [
        {
          "internalType": "address",
          "name": "owner",
          "type": "address"
        },
        {
          "internalType": "address",
          "name": "operator",
          "type": "address"
        }
      ],
      "name": "isApprovedForAll",
      "outputs": [
        {
          "internalType": "bool",
          "name": "",
          "type": "bool"
        }
      ],
      "stateMutability": "view",
      "type": "function",
      "constant": true
    },
    {
      "inputs": [],
      "name": "name",
      "outputs": [
        {
          "internalType": "string",
          "name": "",
          "type": "string"
        }
      ],
      "stateMutability": "view",
      "type": "function",
      "constant": true
    },
    {
      "inputs": [],
      "name": "owner",
      "outputs": [
        {
          "internalType": "address",
          "name": "",
          "type": "address"
        }
      ],
      "stateMutability": "view",
      "type": "function",
      "constant": true
    },
    {
      "inputs": [
        {
          "internalType": "uint256",
          "name": "tokenId",
          "type": "uint256"
        }
      ],
      "name": "ownerOf",
      "outputs": [
        {
          "internalType": "address",
          "name": "",
          "type": "address"
        }
      ],
      "stateMutability": "view",
      "type": "function",
      "constant": true
    },
    {
      "inputs": [],
      "name": "renounceOwnership",
      "outputs": [],
      "stateMutability": "nonpayable",
      "type": "function"
    },
    {
      "inputs": [
        {
          "internalType": "address",
          "name": "from",
          "type": "address"
        },
        {
          "internalType": "address",
          "name": "to",
          "type": "address"
        },
        {
          "internalType": "uint256",
          "name": "tokenId",
          "type": "uint256"
        }
      ],
      "name": "safeTransferFrom",
      "outputs": [],
      "stateMutability": "nonpayable",
      "type": "function"
    },
    {
      "inputs": [
        {
          "internalType": "address",
          "name": "from",
          "type": "address"
        },
        {
          "internalType": "address",
          "name": "to",
          "type": "address"
        },
        {
          "internalType": "uint256",
          "name": "tokenId",
          "type": "uint256"
        },
        {
          "internalType": "bytes",
          "name": "_data",
          "type": "bytes"
        }
      ],
      "name": "safeTransferFrom",
      "outputs": [],
      "stateMutability": "nonpayable",
      "type": "function"
    },
    {
      "inputs": [
        {
          "internalType": "address",
          "name": "operator",
          "type": "address"
        },
        {
          "internalType": "bool",
          "name": "approved",
          "type": "bool"
        }
      ],
      "name": "setApprovalForAll",
      "outputs": [],
      "stateMutability": "nonpayable",
      "type": "function"
    },
    {
      "inputs": [
        {
          "internalType": "bytes4",
          "name": "interfaceId",
          "type": "bytes4"
        }
      ],
      "name": "supportsInterface",
      "outputs": [
        {
          "internalType": "bool",
          "name": "",
          "type": "bool"
        }
      ],
      "stateMutability": "view",
      "type": "function",
      "constant": true
    },
    {
      "inputs": [],
      "name": "symbol",
      "outputs": [
        {
          "internalType": "string",
          "name": "",
          "type": "string"
        }
      ],
      "stateMutability": "view",
      "type": "function",
      "constant": true
    },
    {
      "inputs": [],
      "name": "time",
      "outputs": [
        {
          "internalType": "uint256",
          "name": "",
          "type": "uint256"
        }
      ],
      "stateMutability": "view",
      "type": "function",
      "constant": true
    },
    {
      "inputs": [
        {
          "internalType": "uint256",
          "name": "tokenId",
          "type": "uint256"
        }
      ],
      "name": "tokenURI",
      "outputs": [
        {
          "internalType": "string",
          "name": "",
          "type": "string"
        }
      ],
      "stateMutability": "view",
      "type": "function",
      "constant": true
    },
    {
      "inputs": [
        {
          "internalType": "address",
          "name": "from",
          "type": "address"
        },
        {
          "internalType": "address",
          "name": "to",
          "type": "address"
        },
        {
          "internalType": "uint256",
          "name": "tokenId",
          "type": "uint256"
        }
      ],
      "name": "transferFrom",
      "outputs": [],
      "stateMutability": "nonpayable",
      "type": "function"
    },
    {
      "inputs": [
        {
          "internalType": "address",
          "name": "newOwner",
          "type": "address"
        }
      ],
      "name": "transferOwnership",
      "outputs": [],
      "stateMutability": "nonpayable",
      "type": "function"
    },
    {
      "inputs": [],
      "name": "withdrawDue",
      "outputs": [
        {
          "internalType": "uint256",
          "name": "",
          "type": "uint256"
        }
      ],
      "stateMutability": "view",
      "type": "function",
      "constant": true
    },
    {
      "inputs": [
        {
          "internalType": "string",
          "name": "_name",
          "type": "string"
        },
        {
          "internalType": "string",
          "name": "_title",
          "type": "string"
        },
        {
          "internalType": "string",
          "name": "_definition",
          "type": "string"
        },
        {
          "internalType": "uint256",
          "name": "_requiredAmount",
          "type": "uint256"
        },
        {
          "internalType": "uint256",
          "name": "_requiredDate",
          "type": "uint256"
        }
      ],
      "name": "setDonated",
      "outputs": [],
      "stateMutability": "nonpayable",
      "type": "function"
    },
    {
      "inputs": [
        {
          "internalType": "uint256",
          "name": "_id",
          "type": "uint256"
        }
      ],
      "name": "dueDatehandler",
      "outputs": [],
      "stateMutability": "nonpayable",
      "type": "function"
    },
    {
      "inputs": [],
      "name": "getContractAddress",
      "outputs": [
        {
          "internalType": "address",
          "name": "",
          "type": "address"
        }
      ],
      "stateMutability": "view",
      "type": "function",
      "constant": true
    },
    {
      "inputs": [
        {
          "internalType": "address",
          "name": "_donated",
          "type": "address"
        }
      ],
      "name": "getDonatedAmount",
      "outputs": [
        {
          "internalType": "uint256",
          "name": "",
          "type": "uint256"
        }
      ],
      "stateMutability": "view",
      "type": "function",
      "constant": true
    },
    {
      "inputs": [
        {
          "internalType": "uint256",
          "name": "_id",
          "type": "uint256"
        },
        {
          "internalType": "address",
          "name": "_donator",
          "type": "address"
        }
      ],
      "name": "getDonatorAmount",
      "outputs": [
        {
          "internalType": "uint256",
          "name": "",
          "type": "uint256"
        }
      ],
      "stateMutability": "view",
      "type": "function",
      "constant": true
    },
    {
      "inputs": [
        {
          "internalType": "uint256",
          "name": "_id",
          "type": "uint256"
        }
      ],
      "name": "getBalanceOfProject",
      "outputs": [
        {
          "internalType": "uint256",
          "name": "",
          "type": "uint256"
        }
      ],
      "stateMutability": "view",
      "type": "function",
      "constant": true
    },
    {
      "inputs": [],
      "name": "getId",
      "outputs": [
        {
          "internalType": "uint256",
          "name": "",
          "type": "uint256"
        }
      ],
      "stateMutability": "view",
      "type": "function",
      "constant": true
    },
    {
      "inputs": [
        {
          "internalType": "uint256",
          "name": "_id",
          "type": "uint256"
        }
      ],
      "name": "getDonatedToDonators",
      "outputs": [
        {
          "internalType": "address[]",
          "name": "",
          "type": "address[]"
        }
      ],
      "stateMutability": "view",
      "type": "function",
      "constant": true
    },
    {
      "inputs": [
        {
          "internalType": "uint256",
          "name": "_id",
          "type": "uint256"
        }
      ],
      "name": "fund",
      "outputs": [],
      "stateMutability": "payable",
      "type": "function",
      "payable": true
    },
    {
      "inputs": [
        {
          "internalType": "uint256",
          "name": "_id",
          "type": "uint256"
        },
        {
          "internalType": "string",
          "name": "tokenURI",
          "type": "string"
        }
      ],
      "name": "fundEarnNft",
      "outputs": [],
      "stateMutability": "payable",
      "type": "function",
      "payable": true
    },
    {
      "inputs": [
        {
          "internalType": "uint256",
          "name": "_id",
          "type": "uint256"
        }
      ],
      "name": "withdraw",
      "outputs": [],
      "stateMutability": "payable",
      "type": "function",
      "payable": true
    }
  ],
  "bytecode": "0x608060405262093a8060095560006016553480156200001d57600080fd5b506040518060400160405280600681526020017f46756e644d6500000000000000000000000000000000000000000000000000008152506040518060400160405280600281526020017f464d000000000000000000000000000000000000000000000000000000000000815250620000aa6200009e620000f560201b60201c565b620000fd60201b60201c565b8160019080519060200190620000c292919062000300565b508060029080519060200190620000db92919062000300565b505050620000ef33620001c160201b60201c565b62000530565b600033905090565b60008060009054906101000a900473ffffffffffffffffffffffffffffffffffffffff169050816000806101000a81548173ffffffffffffffffffffffffffffffffffffffff021916908373ffffffffffffffffffffffffffffffffffffffff1602179055508173ffffffffffffffffffffffffffffffffffffffff168173ffffffffffffffffffffffffffffffffffffffff167f8be0079c531659141344cd1fd0a4f28419497f9722a3daafe3b4186f6b6457e060405160405180910390a35050565b620001d1620000f560201b60201c565b73ffffffffffffffffffffffffffffffffffffffff16620001f7620002d760201b60201c565b73ffffffffffffffffffffffffffffffffffffffff161462000250576040517f08c379a0000000000000000000000000000000000000000000000000000000008152600401620002479062000420565b60405180910390fd5b600073ffffffffffffffffffffffffffffffffffffffff168173ffffffffffffffffffffffffffffffffffffffff161415620002c3576040517f08c379a0000000000000000000000000000000000000000000000000000000008152600401620002ba90620003fe565b60405180910390fd5b620002d481620000fd60201b60201c565b50565b60008060009054906101000a900473ffffffffffffffffffffffffffffffffffffffff16905090565b8280546200030e9062000453565b90600052602060002090601f0160209004810192826200033257600085556200037e565b82601f106200034d57805160ff19168380011785556200037e565b828001600101855582156200037e579182015b828111156200037d57825182559160200191906001019062000360565b5b5090506200038d919062000391565b5090565b5b80821115620003ac57600081600090555060010162000392565b5090565b6000620003bf60268362000442565b9150620003cc82620004b8565b604082019050919050565b6000620003e660208362000442565b9150620003f38262000507565b602082019050919050565b600060208201905081810360008301526200041981620003b0565b9050919050565b600060208201905081810360008301526200043b81620003d7565b9050919050565b600082825260208201905092915050565b600060028204905060018216806200046c57607f821691505b6020821081141562000483576200048262000489565b5b50919050565b7f4e487b7100000000000000000000000000000000000000000000000000000000600052602260045260246000fd5b7f4f776e61626c653a206e6577206f776e657220697320746865207a65726f206160008201527f6464726573730000000000000000000000000000000000000000000000000000602082015250565b7f4f776e61626c653a2063616c6c6572206973206e6f7420746865206f776e6572600082015250565b615b0880620005406000396000f3fe60806040526004361061023b5760003560e01c806370a082311161012e578063b03b5719116100ab578063cc7400af1161006f578063cc7400af1461090a578063dc0d3dff14610947578063e985e9c514610984578063f2fde38b146109c1578063f85a9954146109ea5761023b565b8063b03b57191461080e578063b88d4fde1461084b578063c87b56dd14610874578063ca1d209d146108b1578063cb0e0d7d146108cd5761023b565b80639575420d116100f25780639575420d1461070357806395c083de1461074057806395d89b411461077d578063a22cb465146107a8578063aa35b386146107d15761023b565b806370a082311461063f578063715018a61461067c57806381a1618b14610693578063833404f7146106bc5780638da5cb5b146106d85761023b565b80632c29139d116101bc578063489310961161018057806348931096146105325780635cac62271461056f5780635d1ca631146105ac5780636352211e146105d75780636bdde0d5146106145761023b565b80632c29139d1461045c5780632e1a7d4d1461049957806332a2c5d0146104b5578063381422d2146104e057806342842e0e146105095761023b565b8063095ea7b311610203578063095ea7b31461035f57806312546f6a1461038857806316ada547146103cb57806323b872dd146103f65780632b76e16a1461041f5761023b565b806301ffc9a714610240578063022f63881461027d57806306fdde03146102ba578063074179dc146102e5578063081812fc14610322575b600080fd5b34801561024c57600080fd5b5061026760048036038101906102629190614608565b610a27565b6040516102749190614cd6565b60405180910390f35b34801561028957600080fd5b506102a4600480360381019061029f9190614461565b610b09565b6040516102b19190614fd3565b60405180910390f35b3480156102c657600080fd5b506102cf610b21565b6040516102dc9190614cf1565b60405180910390f35b3480156102f157600080fd5b5061030c60048036038101906103079190614719565b610bb3565b6040516103199190614fd3565b60405180910390f35b34801561032e57600080fd5b5061034960048036038101906103449190614719565b610c67565b6040516103569190614c4d565b60405180910390f35b34801561036b57600080fd5b50610386600480360381019061038191906145cc565b610cec565b005b34801561039457600080fd5b506103af60048036038101906103aa9190614719565b610e04565b6040516103c29796959493929190614fee565b60405180910390f35b3480156103d757600080fd5b506103e061100e565b6040516103ed9190614fd3565b60405180910390f35b34801561040257600080fd5b5061041d600480360381019061041891906144c6565b611014565b005b34801561042b57600080fd5b50610446600480360381019061044191906145cc565b611074565b6040516104539190614c4d565b60405180910390f35b34801561046857600080fd5b50610483600480360381019061047e919061448a565b6110c2565b6040516104909190614fd3565b60405180910390f35b6104b360048036038101906104ae9190614719565b6110e7565b005b3480156104c157600080fd5b506104ca6116aa565b6040516104d79190614c4d565b60405180910390f35b3480156104ec57600080fd5b5061050760048036038101906105029190614719565b6116b2565b005b34801561051557600080fd5b50610530600480360381019061052b91906144c6565b611ca8565b005b34801561053e57600080fd5b506105596004803603810190610554919061448a565b611cc8565b6040516105669190614fd3565b60405180910390f35b34801561057b57600080fd5b50610596600480360381019061059191906145cc565b611ced565b6040516105a39190614fd3565b60405180910390f35b3480156105b857600080fd5b506105c1611d1e565b6040516105ce9190614fd3565b60405180910390f35b3480156105e357600080fd5b506105fe60048036038101906105f99190614719565b611d65565b60405161060b9190614c4d565b60405180910390f35b34801561062057600080fd5b50610629611e17565b6040516106369190614fd3565b60405180910390f35b34801561064b57600080fd5b5061066660048036038101906106619190614461565b611e1d565b6040516106739190614fd3565b60405180910390f35b34801561068857600080fd5b50610691611ed5565b005b34801561069f57600080fd5b506106ba60048036038101906106b5919061465a565b611f5d565b005b6106d660048036038101906106d1919061477e565b6120f9565b005b3480156106e457600080fd5b506106ed61255e565b6040516106fa9190614c4d565b60405180910390f35b34801561070f57600080fd5b5061072a60048036038101906107259190614742565b612587565b6040516107379190614fd3565b60405180910390f35b34801561074c57600080fd5b5061076760048036038101906107629190614719565b612679565b6040516107749190614c4d565b60405180910390f35b34801561078957600080fd5b506107926126b8565b60405161079f9190614cf1565b60405180910390f35b3480156107b457600080fd5b506107cf60048036038101906107ca9190614590565b61274a565b005b3480156107dd57600080fd5b506107f860048036038101906107f39190614719565b612760565b6040516108059190614cb4565b60405180910390f35b34801561081a57600080fd5b5061083560048036038101906108309190614461565b612898565b6040516108429190614fd3565b60405180910390f35b34801561085757600080fd5b50610872600480360381019061086d9190614515565b6128e1565b005b34801561088057600080fd5b5061089b60048036038101906108969190614719565b612943565b6040516108a89190614cf1565b60405180910390f35b6108cb60048036038101906108c69190614719565b612a95565b005b3480156108d957600080fd5b506108f460048036038101906108ef9190614461565b612dc5565b6040516109019190614fd3565b60405180910390f35b34801561091657600080fd5b50610931600480360381019061092c9190614461565b612ddd565b60405161093e9190614cf1565b60405180910390f35b34801561095357600080fd5b5061096e60048036038101906109699190614719565b612e7d565b60405161097b9190614c4d565b60405180910390f35b34801561099057600080fd5b506109ab60048036038101906109a6919061448a565b612ebc565b6040516109b89190614cd6565b60405180910390f35b3480156109cd57600080fd5b506109e860048036038101906109e39190614461565b612f50565b005b3480156109f657600080fd5b50610a116004803603810190610a0c91906145cc565b613048565b604051610a1e9190614c4d565b60405180910390f35b60007f80ac58cd000000000000000000000000000000000000000000000000000000007bffffffffffffffffffffffffffffffffffffffffffffffffffffffff1916827bffffffffffffffffffffffffffffffffffffffffffffffffffffffff19161480610af257507f5b5e139f000000000000000000000000000000000000000000000000000000007bffffffffffffffffffffffffffffffffffffffffffffffffffffffff1916827bffffffffffffffffffffffffffffffffffffffffffffffffffffffff1916145b80610b025750610b0182613096565b5b9050919050565b600d6020528060005260406000206000915090505481565b606060018054610b30906152e6565b80601f0160208091040260200160405190810160405280929190818152602001828054610b5c906152e6565b8015610ba95780601f10610b7e57610100808354040283529160200191610ba9565b820191906000526020600020905b815481529060010190602001808311610b8c57829003601f168201915b5050505050905090565b6000600d6000600a8481548110610bf3577f4e487b7100000000000000000000000000000000000000000000000000000000600052603260045260246000fd5b906000526020600020906007020160040160009054906101000a900473ffffffffffffffffffffffffffffffffffffffff1673ffffffffffffffffffffffffffffffffffffffff1673ffffffffffffffffffffffffffffffffffffffff168152602001908152602001600020549050919050565b6000610c7282613100565b610cb1576040517f08c379a0000000000000000000000000000000000000000000000000000000008152600401610ca890614ef3565b60405180910390fd5b6005600083815260200190815260200160002060009054906101000a900473ffffffffffffffffffffffffffffffffffffffff169050919050565b6000610cf782611d65565b90508073ffffffffffffffffffffffffffffffffffffffff168373ffffffffffffffffffffffffffffffffffffffff161415610d68576040517f08c379a0000000000000000000000000000000000000000000000000000000008152600401610d5f90614f73565b60405180910390fd5b8073ffffffffffffffffffffffffffffffffffffffff16610d8761316c565b73ffffffffffffffffffffffffffffffffffffffff161480610db65750610db581610db061316c565b612ebc565b5b610df5576040517f08c379a0000000000000000000000000000000000000000000000000000000008152600401610dec90614e13565b60405180910390fd5b610dff8383613174565b505050565b600a8181548110610e1457600080fd5b9060005260206000209060070201600091509050806000015490806001018054610e3d906152e6565b80601f0160208091040260200160405190810160405280929190818152602001828054610e69906152e6565b8015610eb65780601f10610e8b57610100808354040283529160200191610eb6565b820191906000526020600020905b815481529060010190602001808311610e9957829003601f168201915b505050505090806002018054610ecb906152e6565b80601f0160208091040260200160405190810160405280929190818152602001828054610ef7906152e6565b8015610f445780601f10610f1957610100808354040283529160200191610f44565b820191906000526020600020905b815481529060010190602001808311610f2757829003601f168201915b505050505090806003018054610f59906152e6565b80601f0160208091040260200160405190810160405280929190818152602001828054610f85906152e6565b8015610fd25780601f10610fa757610100808354040283529160200191610fd2565b820191906000526020600020905b815481529060010190602001808311610fb557829003601f168201915b5050505050908060040160009054906101000a900473ffffffffffffffffffffffffffffffffffffffff16908060050154908060060154905087565b60155481565b61102561101f61316c565b8261322d565b611064576040517f08c379a000000000000000000000000000000000000000000000000000000000815260040161105b90614fb3565b60405180910390fd5b61106f83838361330b565b505050565b6012602052816000526040600020818154811061109057600080fd5b906000526020600020016000915091509054906101000a900473ffffffffffffffffffffffffffffffffffffffff1681565b600f602052816000526040600020602052806000526040600020600091509150505481565b80600a8181548110611122577f4e487b7100000000000000000000000000000000000000000000000000000000600052603260045260246000fd5b906000526020600020906007020160050154600d60003373ffffffffffffffffffffffffffffffffffffffff1673ffffffffffffffffffffffffffffffffffffffff1681526020019081526020016000205410156111b5576040517f08c379a00000000000000000000000000000000000000000000000000000000081526004016111ac90614e93565b60405180910390fd5b81600a81815481106111f0577f4e487b7100000000000000000000000000000000000000000000000000000000600052603260045260246000fd5b906000526020600020906007020160040160009054906101000a900473ffffffffffffffffffffffffffffffffffffffff1673ffffffffffffffffffffffffffffffffffffffff163373ffffffffffffffffffffffffffffffffffffffff161461125957600080fd5b600a8381548110611293577f4e487b7100000000000000000000000000000000000000000000000000000000600052603260045260246000fd5b9060005260206000209060070201600601544210156112e7576040517f08c379a00000000000000000000000000000000000000000000000000000000081526004016112de90614f53565b60405180910390fd5b3373ffffffffffffffffffffffffffffffffffffffff166108fc600d60003373ffffffffffffffffffffffffffffffffffffffff1673ffffffffffffffffffffffffffffffffffffffff168152602001908152602001600020549081150290604051600060405180830381858888f1935050505015801561136c573d6000803e3d6000fd5b50823373ffffffffffffffffffffffffffffffffffffffff167ff279e6a1f5e320cca91135676d9cb6e44ca8a08c0b88342bcdb1144f6511b568600d60003373ffffffffffffffffffffffffffffffffffffffff1673ffffffffffffffffffffffffffffffffffffffff168152602001908152602001600020546040516113f39190614fd3565b60405180910390a36000600d60003373ffffffffffffffffffffffffffffffffffffffff1673ffffffffffffffffffffffffffffffffffffffff16815260200190815260200160002081905550600067ffffffffffffffff811115611481577f4e487b7100000000000000000000000000000000000000000000000000000000600052604160045260246000fd5b6040519080825280602002602001820160405280156114af5781602001602082028036833780820191505090505b5060116000600a86815481106114ee577f4e487b7100000000000000000000000000000000000000000000000000000000600052603260045260246000fd5b906000526020600020906007020160040160009054906101000a900473ffffffffffffffffffffffffffffffffffffffff1673ffffffffffffffffffffffffffffffffffffffff1673ffffffffffffffffffffffffffffffffffffffff168152602001908152602001600020908051906020019061156d9291906141fb565b5061157783613572565b600067ffffffffffffffff8111156115b8577f4e487b7100000000000000000000000000000000000000000000000000000000600052604160045260246000fd5b6040519080825280602002602001820160405280156115e65781602001602082028036833780820191505090505b5060126000600a8681548110611625577f4e487b7100000000000000000000000000000000000000000000000000000000600052603260045260246000fd5b906000526020600020906007020160040160009054906101000a900473ffffffffffffffffffffffffffffffffffffffff1673ffffffffffffffffffffffffffffffffffffffff1673ffffffffffffffffffffffffffffffffffffffff16815260200190815260200160002090805190602001906116a49291906141fb565b50505050565b600030905090565b6116ba61316c565b73ffffffffffffffffffffffffffffffffffffffff166116d861255e565b73ffffffffffffffffffffffffffffffffffffffff161461172e576040517f08c379a000000000000000000000000000000000000000000000000000000000815260040161172590614f13565b60405180910390fd5b600954600a828154811061176b577f4e487b7100000000000000000000000000000000000000000000000000000000600052603260045260246000fd5b9060005260206000209060070201600601546117879190615175565b4210156117c9576040517f08c379a00000000000000000000000000000000000000000000000000000000081526004016117c090614f93565b60405180910390fd5b6000600a8281548110611805577f4e487b7100000000000000000000000000000000000000000000000000000000600052603260045260246000fd5b906000526020600020906007020160040160009054906101000a900473ffffffffffffffffffffffffffffffffffffffff16905060005b601160008373ffffffffffffffffffffffffffffffffffffffff1673ffffffffffffffffffffffffffffffffffffffff16815260200190815260200160002080549050811015611ca357601160008373ffffffffffffffffffffffffffffffffffffffff1673ffffffffffffffffffffffffffffffffffffffff16815260200190815260200160002081815481106118fd577f4e487b7100000000000000000000000000000000000000000000000000000000600052603260045260246000fd5b9060005260206000200160009054906101000a900473ffffffffffffffffffffffffffffffffffffffff1673ffffffffffffffffffffffffffffffffffffffff166108fc600e60008573ffffffffffffffffffffffffffffffffffffffff1673ffffffffffffffffffffffffffffffffffffffff1681526020019081526020016000206000601160008773ffffffffffffffffffffffffffffffffffffffff1673ffffffffffffffffffffffffffffffffffffffff16815260200190815260200160002085815481106119f9577f4e487b7100000000000000000000000000000000000000000000000000000000600052603260045260246000fd5b9060005260206000200160009054906101000a900473ffffffffffffffffffffffffffffffffffffffff1673ffffffffffffffffffffffffffffffffffffffff1673ffffffffffffffffffffffffffffffffffffffff168152602001908152602001600020549081150290604051600060405180830381858888f19350505050158015611a8a573d6000803e3d6000fd5b50601260008373ffffffffffffffffffffffffffffffffffffffff1673ffffffffffffffffffffffffffffffffffffffff1681526020019081526020016000208181548110611b02577f4e487b7100000000000000000000000000000000000000000000000000000000600052603260045260246000fd5b9060005260206000200160009054906101000a900473ffffffffffffffffffffffffffffffffffffffff1673ffffffffffffffffffffffffffffffffffffffff166108fc600f60008573ffffffffffffffffffffffffffffffffffffffff1673ffffffffffffffffffffffffffffffffffffffff1681526020019081526020016000206000601260008773ffffffffffffffffffffffffffffffffffffffff1673ffffffffffffffffffffffffffffffffffffffff1681526020019081526020016000208581548110611bfe577f4e487b7100000000000000000000000000000000000000000000000000000000600052603260045260246000fd5b9060005260206000200160009054906101000a900473ffffffffffffffffffffffffffffffffffffffff1673ffffffffffffffffffffffffffffffffffffffff1673ffffffffffffffffffffffffffffffffffffffff168152602001908152602001600020549081150290604051600060405180830381858888f19350505050158015611c8f573d6000803e3d6000fd5b508080611c9b90615349565b91505061183c565b505050565b611cc3838383604051806020016040528060008152506128e1565b505050565b600e602052816000526040600020602052806000526040600020600091509150505481565b60146020528160005260406000208181548110611d0957600080fd5b90600052602060002001600091509150505481565b6000601060003373ffffffffffffffffffffffffffffffffffffffff1673ffffffffffffffffffffffffffffffffffffffff16815260200190815260200160002054905090565b6000806003600084815260200190815260200160002060009054906101000a900473ffffffffffffffffffffffffffffffffffffffff169050600073ffffffffffffffffffffffffffffffffffffffff168173ffffffffffffffffffffffffffffffffffffffff161415611e0e576040517f08c379a0000000000000000000000000000000000000000000000000000000008152600401611e0590614e53565b60405180910390fd5b80915050919050565b60095481565b60008073ffffffffffffffffffffffffffffffffffffffff168273ffffffffffffffffffffffffffffffffffffffff161415611e8e576040517f08c379a0000000000000000000000000000000000000000000000000000000008152600401611e8590614e33565b60405180910390fd5b600460008373ffffffffffffffffffffffffffffffffffffffff1673ffffffffffffffffffffffffffffffffffffffff168152602001908152602001600020549050919050565b611edd61316c565b73ffffffffffffffffffffffffffffffffffffffff16611efb61255e565b73ffffffffffffffffffffffffffffffffffffffff1614611f51576040517f08c379a0000000000000000000000000000000000000000000000000000000008152600401611f4890614f13565b60405180910390fd5b611f5b60006137d9565b565b60006040518060e0016040528060165481526020018781526020018681526020018581526020013373ffffffffffffffffffffffffffffffffffffffff168152602001848152602001838152509050600a819080600181540180825580915050600190039060005260206000209060070201600090919091909150600082015181600001556020820151816001019080519060200190611ffe929190614285565b50604082015181600201908051906020019061201b929190614285565b506060820151816003019080519060200190612038929190614285565b5060808201518160040160006101000a81548173ffffffffffffffffffffffffffffffffffffffff021916908373ffffffffffffffffffffffffffffffffffffffff16021790555060a0820151816005015560c082015181600601555050601654601060003373ffffffffffffffffffffffffffffffffffffffff1673ffffffffffffffffffffffffffffffffffffffff1681526020019081526020016000208190555060016016546120eb9190615175565b601681905550505050505050565b6000600f6000600a8581548110612139577f4e487b7100000000000000000000000000000000000000000000000000000000600052603260045260246000fd5b906000526020600020906007020160040160009054906101000a900473ffffffffffffffffffffffffffffffffffffffff1673ffffffffffffffffffffffffffffffffffffffff1673ffffffffffffffffffffffffffffffffffffffff16815260200190815260200160002060003373ffffffffffffffffffffffffffffffffffffffff1673ffffffffffffffffffffffffffffffffffffffff1681526020019081526020016000205414612223576040517f08c379a000000000000000000000000000000000000000000000000000000000815260040161221a90614d93565b60405180910390fd5b34600d6000600a8581548110612262577f4e487b7100000000000000000000000000000000000000000000000000000000600052603260045260246000fd5b906000526020600020906007020160040160009054906101000a900473ffffffffffffffffffffffffffffffffffffffff1673ffffffffffffffffffffffffffffffffffffffff1673ffffffffffffffffffffffffffffffffffffffff16815260200190815260200160002060008282546122dd9190615175565b9250508190555034600f6000600a8581548110612323577f4e487b7100000000000000000000000000000000000000000000000000000000600052603260045260246000fd5b906000526020600020906007020160040160009054906101000a900473ffffffffffffffffffffffffffffffffffffffff1673ffffffffffffffffffffffffffffffffffffffff1673ffffffffffffffffffffffffffffffffffffffff16815260200190815260200160002060003373ffffffffffffffffffffffffffffffffffffffff1673ffffffffffffffffffffffffffffffffffffffff16815260200190815260200160002060008282546123db9190615175565b92505081905550600b339080600181540180825580915050600190039060005260206000200160009091909190916101000a81548173ffffffffffffffffffffffffffffffffffffffff021916908373ffffffffffffffffffffffffffffffffffffffff16021790555060126000600a8481548110612483577f4e487b7100000000000000000000000000000000000000000000000000000000600052603260045260246000fd5b906000526020600020906007020160040160009054906101000a900473ffffffffffffffffffffffffffffffffffffffff1673ffffffffffffffffffffffffffffffffffffffff1673ffffffffffffffffffffffffffffffffffffffff168152602001908152602001600020339080600181540180825580915050600190039060005260206000200160009091909190916101000a81548173ffffffffffffffffffffffffffffffffffffffff021916908373ffffffffffffffffffffffffffffffffffffffff16021790555061255a813361389d565b5050565b60008060009054906101000a900473ffffffffffffffffffffffffffffffffffffffff16905090565b6000600e6000600a85815481106125c7577f4e487b7100000000000000000000000000000000000000000000000000000000600052603260045260246000fd5b906000526020600020906007020160040160009054906101000a900473ffffffffffffffffffffffffffffffffffffffff1673ffffffffffffffffffffffffffffffffffffffff1673ffffffffffffffffffffffffffffffffffffffff16815260200190815260200160002060008373ffffffffffffffffffffffffffffffffffffffff1673ffffffffffffffffffffffffffffffffffffffff16815260200190815260200160002054905092915050565b600c818154811061268957600080fd5b906000526020600020016000915054906101000a900473ffffffffffffffffffffffffffffffffffffffff1681565b6060600280546126c7906152e6565b80601f01602080910402602001604051908101604052809291908181526020018280546126f3906152e6565b80156127405780601f1061271557610100808354040283529160200191612740565b820191906000526020600020905b81548152906001019060200180831161272357829003601f168201915b5050505050905090565b61275c61275561316c565b83836138fb565b5050565b606060116000600a84815481106127a0577f4e487b7100000000000000000000000000000000000000000000000000000000600052603260045260246000fd5b906000526020600020906007020160040160009054906101000a900473ffffffffffffffffffffffffffffffffffffffff1673ffffffffffffffffffffffffffffffffffffffff1673ffffffffffffffffffffffffffffffffffffffff16815260200190815260200160002080548060200260200160405190810160405280929190818152602001828054801561288c57602002820191906000526020600020905b8160009054906101000a900473ffffffffffffffffffffffffffffffffffffffff1673ffffffffffffffffffffffffffffffffffffffff1681526020019060010190808311612842575b50505050509050919050565b6000600d60008373ffffffffffffffffffffffffffffffffffffffff1673ffffffffffffffffffffffffffffffffffffffff168152602001908152602001600020549050919050565b6128f26128ec61316c565b8361322d565b612931576040517f08c379a000000000000000000000000000000000000000000000000000000000815260040161292890614fb3565b60405180910390fd5b61293d84848484613a68565b50505050565b606061294e82613100565b61298d576040517f08c379a000000000000000000000000000000000000000000000000000000000815260040161298490614ed3565b60405180910390fd5b60006007600084815260200190815260200160002080546129ad906152e6565b80601f01602080910402602001604051908101604052809291908181526020018280546129d9906152e6565b8015612a265780601f106129fb57610100808354040283529160200191612a26565b820191906000526020600020905b815481529060010190602001808311612a0957829003601f168201915b505050505090506000612a37613ac4565b9050600081511415612a4d578192505050612a90565b600082511115612a82578082604051602001612a6a929190614c29565b60405160208183030381529060405292505050612a90565b612a8b84613adb565b925050505b919050565b34600d6000600a8481548110612ad4577f4e487b7100000000000000000000000000000000000000000000000000000000600052603260045260246000fd5b906000526020600020906007020160040160009054906101000a900473ffffffffffffffffffffffffffffffffffffffff1673ffffffffffffffffffffffffffffffffffffffff1673ffffffffffffffffffffffffffffffffffffffff1681526020019081526020016000206000828254612b4f9190615175565b9250508190555034600e6000600a8481548110612b95577f4e487b7100000000000000000000000000000000000000000000000000000000600052603260045260246000fd5b906000526020600020906007020160040160009054906101000a900473ffffffffffffffffffffffffffffffffffffffff1673ffffffffffffffffffffffffffffffffffffffff1673ffffffffffffffffffffffffffffffffffffffff16815260200190815260200160002060003373ffffffffffffffffffffffffffffffffffffffff1673ffffffffffffffffffffffffffffffffffffffff1681526020019081526020016000206000828254612c4d9190615175565b92505081905550600b339080600181540180825580915050600190039060005260206000200160009091909190916101000a81548173ffffffffffffffffffffffffffffffffffffffff021916908373ffffffffffffffffffffffffffffffffffffffff16021790555060116000600a8381548110612cf5577f4e487b7100000000000000000000000000000000000000000000000000000000600052603260045260246000fd5b906000526020600020906007020160040160009054906101000a900473ffffffffffffffffffffffffffffffffffffffff1673ffffffffffffffffffffffffffffffffffffffff1673ffffffffffffffffffffffffffffffffffffffff168152602001908152602001600020339080600181540180825580915050600190039060005260206000200160009091909190916101000a81548173ffffffffffffffffffffffffffffffffffffffff021916908373ffffffffffffffffffffffffffffffffffffffff16021790555050565b60106020528060005260406000206000915090505481565b60136020528060005260406000206000915090508054612dfc906152e6565b80601f0160208091040260200160405190810160405280929190818152602001828054612e28906152e6565b8015612e755780601f10612e4a57610100808354040283529160200191612e75565b820191906000526020600020905b815481529060010190602001808311612e5857829003601f168201915b505050505081565b600b8181548110612e8d57600080fd5b906000526020600020016000915054906101000a900473ffffffffffffffffffffffffffffffffffffffff1681565b6000600660008473ffffffffffffffffffffffffffffffffffffffff1673ffffffffffffffffffffffffffffffffffffffff16815260200190815260200160002060008373ffffffffffffffffffffffffffffffffffffffff1673ffffffffffffffffffffffffffffffffffffffff16815260200190815260200160002060009054906101000a900460ff16905092915050565b612f5861316c565b73ffffffffffffffffffffffffffffffffffffffff16612f7661255e565b73ffffffffffffffffffffffffffffffffffffffff1614612fcc576040517f08c379a0000000000000000000000000000000000000000000000000000000008152600401612fc390614f13565b60405180910390fd5b600073ffffffffffffffffffffffffffffffffffffffff168173ffffffffffffffffffffffffffffffffffffffff16141561303c576040517f08c379a000000000000000000000000000000000000000000000000000000000815260040161303390614d33565b60405180910390fd5b613045816137d9565b50565b6011602052816000526040600020818154811061306457600080fd5b906000526020600020016000915091509054906101000a900473ffffffffffffffffffffffffffffffffffffffff1681565b60007f01ffc9a7000000000000000000000000000000000000000000000000000000007bffffffffffffffffffffffffffffffffffffffffffffffffffffffff1916827bffffffffffffffffffffffffffffffffffffffffffffffffffffffff1916149050919050565b60008073ffffffffffffffffffffffffffffffffffffffff166003600084815260200190815260200160002060009054906101000a900473ffffffffffffffffffffffffffffffffffffffff1673ffffffffffffffffffffffffffffffffffffffff1614159050919050565b600033905090565b816005600083815260200190815260200160002060006101000a81548173ffffffffffffffffffffffffffffffffffffffff021916908373ffffffffffffffffffffffffffffffffffffffff160217905550808273ffffffffffffffffffffffffffffffffffffffff166131e783611d65565b73ffffffffffffffffffffffffffffffffffffffff167f8c5be1e5ebec7d5bd14f71427d1e84f3dd0314c0f7b2291e5b200ac8c7c3b92560405160405180910390a45050565b600061323882613100565b613277576040517f08c379a000000000000000000000000000000000000000000000000000000000815260040161326e90614df3565b60405180910390fd5b600061328283611d65565b90508073ffffffffffffffffffffffffffffffffffffffff168473ffffffffffffffffffffffffffffffffffffffff1614806132c457506132c38185612ebc565b5b8061330257508373ffffffffffffffffffffffffffffffffffffffff166132ea84610c67565b73ffffffffffffffffffffffffffffffffffffffff16145b91505092915050565b8273ffffffffffffffffffffffffffffffffffffffff1661332b82611d65565b73ffffffffffffffffffffffffffffffffffffffff1614613381576040517f08c379a000000000000000000000000000000000000000000000000000000000815260040161337890614d53565b60405180910390fd5b600073ffffffffffffffffffffffffffffffffffffffff168273ffffffffffffffffffffffffffffffffffffffff1614156133f1576040517f08c379a00000000000000000000000000000000000000000000000000000000081526004016133e890614db3565b60405180910390fd5b6133fc838383613b82565b613407600082613174565b6001600460008573ffffffffffffffffffffffffffffffffffffffff1673ffffffffffffffffffffffffffffffffffffffff168152602001908152602001600020600082825461345791906151fc565b925050819055506001600460008473ffffffffffffffffffffffffffffffffffffffff1673ffffffffffffffffffffffffffffffffffffffff16815260200190815260200160002060008282546134ae9190615175565b92505081905550816003600083815260200190815260200160002060006101000a81548173ffffffffffffffffffffffffffffffffffffffff021916908373ffffffffffffffffffffffffffffffffffffffff160217905550808273ffffffffffffffffffffffffffffffffffffffff168473ffffffffffffffffffffffffffffffffffffffff167fddf252ad1be2c89b69c2b068fc378daa952ba7f163c4a11628f55a4df523b3ef60405160405180910390a461356d838383613b87565b505050565b600060126000600a84815481106135b2577f4e487b7100000000000000000000000000000000000000000000000000000000600052603260045260246000fd5b906000526020600020906007020160040160009054906101000a900473ffffffffffffffffffffffffffffffffffffffff1673ffffffffffffffffffffffffffffffffffffffff1673ffffffffffffffffffffffffffffffffffffffff16815260200190815260200160002080548060200260200160405190810160405280929190818152602001828054801561369e57602002820191906000526020600020905b8160009054906101000a900473ffffffffffffffffffffffffffffffffffffffff1673ffffffffffffffffffffffffffffffffffffffff1681526020019060010190808311613654575b5050505050905060005b81518110156137d4576137c1601360008484815181106136f1577f4e487b7100000000000000000000000000000000000000000000000000000000600052603260045260246000fd5b602002602001015173ffffffffffffffffffffffffffffffffffffffff1673ffffffffffffffffffffffffffffffffffffffff168152602001908152602001600020805461373e906152e6565b80601f016020809104026020016040519081016040528092919081815260200182805461376a906152e6565b80156137b75780601f1061378c576101008083540402835291602001916137b7565b820191906000526020600020905b81548152906001019060200180831161379a57829003601f168201915b5050505050613b8c565b80806137cc90615349565b9150506136a8565b505050565b60008060009054906101000a900473ffffffffffffffffffffffffffffffffffffffff169050816000806101000a81548173ffffffffffffffffffffffffffffffffffffffff021916908373ffffffffffffffffffffffffffffffffffffffff1602179055508173ffffffffffffffffffffffffffffffffffffffff168173ffffffffffffffffffffffffffffffffffffffff167f8be0079c531659141344cd1fd0a4f28419497f9722a3daafe3b4186f6b6457e060405160405180910390a35050565b600082905080601360008473ffffffffffffffffffffffffffffffffffffffff1673ffffffffffffffffffffffffffffffffffffffff16815260200190815260200160002090805190602001906138f5929190614285565b50505050565b8173ffffffffffffffffffffffffffffffffffffffff168373ffffffffffffffffffffffffffffffffffffffff16141561396a576040517f08c379a000000000000000000000000000000000000000000000000000000000815260040161396190614dd3565b60405180910390fd5b80600660008573ffffffffffffffffffffffffffffffffffffffff1673ffffffffffffffffffffffffffffffffffffffff16815260200190815260200160002060008473ffffffffffffffffffffffffffffffffffffffff1673ffffffffffffffffffffffffffffffffffffffff16815260200190815260200160002060006101000a81548160ff0219169083151502179055508173ffffffffffffffffffffffffffffffffffffffff168373ffffffffffffffffffffffffffffffffffffffff167f17307eab39ab6107e8899845ad3d59bd9653f200f220920489ca2b5937696c3183604051613a5b9190614cd6565b60405180910390a3505050565b613a7384848461330b565b613a7f84848484613c22565b613abe576040517f08c379a0000000000000000000000000000000000000000000000000000000008152600401613ab590614d13565b60405180910390fd5b50505050565b606060405180602001604052806000815250905090565b6060613ae682613100565b613b25576040517f08c379a0000000000000000000000000000000000000000000000000000000008152600401613b1c90614f33565b60405180910390fd5b6000613b2f613ac4565b90506000815111613b4f5760405180602001604052806000815250613b7a565b80613b5984613db9565b604051602001613b6a929190614c29565b6040516020818303038152906040525b915050919050565b505050565b505050565b613b966008613f66565b6000613ba26008613f7c565b9050613bae3382613f8a565b613bb88183614164565b601460003373ffffffffffffffffffffffffffffffffffffffff1673ffffffffffffffffffffffffffffffffffffffff1681526020019081526020016000208190806001815401808255809150506001900390600052602060002001600090919091909150555050565b6000613c438473ffffffffffffffffffffffffffffffffffffffff166141d8565b15613dac578373ffffffffffffffffffffffffffffffffffffffff1663150b7a02613c6c61316c565b8786866040518563ffffffff1660e01b8152600401613c8e9493929190614c68565b602060405180830381600087803b158015613ca857600080fd5b505af1925050508015613cd957506040513d601f19601f82011682018060405250810190613cd69190614631565b60015b613d5c573d8060008114613d09576040519150601f19603f3d011682016040523d82523d6000602084013e613d0e565b606091505b50600081511415613d54576040517f08c379a0000000000000000000000000000000000000000000000000000000008152600401613d4b90614d13565b60405180910390fd5b805181602001fd5b63150b7a0260e01b7bffffffffffffffffffffffffffffffffffffffffffffffffffffffff1916817bffffffffffffffffffffffffffffffffffffffffffffffffffffffff191614915050613db1565b600190505b949350505050565b60606000821415613e01576040518060400160405280600181526020017f30000000000000000000000000000000000000000000000000000000000000008152509050613f61565b600082905060005b60008214613e33578080613e1c90615349565b915050600a82613e2c91906151cb565b9150613e09565b60008167ffffffffffffffff811115613e75577f4e487b7100000000000000000000000000000000000000000000000000000000600052604160045260246000fd5b6040519080825280601f01601f191660200182016040528015613ea75781602001600182028036833780820191505090505b5090505b60008514613f5a57600182613ec091906151fc565b9150600a85613ecf9190615392565b6030613edb9190615175565b60f81b818381518110613f17577f4e487b7100000000000000000000000000000000000000000000000000000000600052603260045260246000fd5b60200101907effffffffffffffffffffffffffffffffffffffffffffffffffffffffffffff1916908160001a905350600a85613f5391906151cb565b9450613eab565b8093505050505b919050565b6001816000016000828254019250508190555050565b600081600001549050919050565b600073ffffffffffffffffffffffffffffffffffffffff168273ffffffffffffffffffffffffffffffffffffffff161415613ffa576040517f08c379a0000000000000000000000000000000000000000000000000000000008152600401613ff190614eb3565b60405180910390fd5b61400381613100565b15614043576040517f08c379a000000000000000000000000000000000000000000000000000000000815260040161403a90614d73565b60405180910390fd5b61404f60008383613b82565b6001600460008473ffffffffffffffffffffffffffffffffffffffff1673ffffffffffffffffffffffffffffffffffffffff168152602001908152602001600020600082825461409f9190615175565b92505081905550816003600083815260200190815260200160002060006101000a81548173ffffffffffffffffffffffffffffffffffffffff021916908373ffffffffffffffffffffffffffffffffffffffff160217905550808273ffffffffffffffffffffffffffffffffffffffff16600073ffffffffffffffffffffffffffffffffffffffff167fddf252ad1be2c89b69c2b068fc378daa952ba7f163c4a11628f55a4df523b3ef60405160405180910390a461416060008383613b87565b5050565b61416d82613100565b6141ac576040517f08c379a00000000000000000000000000000000000000000000000000000000081526004016141a390614e73565b60405180910390fd5b806007600084815260200190815260200160002090805190602001906141d3929190614285565b505050565b6000808273ffffffffffffffffffffffffffffffffffffffff163b119050919050565b828054828255906000526020600020908101928215614274579160200282015b828111156142735782518260006101000a81548173ffffffffffffffffffffffffffffffffffffffff021916908373ffffffffffffffffffffffffffffffffffffffff1602179055509160200191906001019061421b565b5b509050614281919061430b565b5090565b828054614291906152e6565b90600052602060002090601f0160209004810192826142b357600085556142fa565b82601f106142cc57805160ff19168380011785556142fa565b828001600101855582156142fa579182015b828111156142f95782518255916020019190600101906142de565b5b509050614307919061430b565b5090565b5b8082111561432457600081600090555060010161430c565b5090565b600061433b61433684615097565b615072565b90508281526020810184848401111561435357600080fd5b61435e8482856152a4565b509392505050565b6000614379614374846150c8565b615072565b90508281526020810184848401111561439157600080fd5b61439c8482856152a4565b509392505050565b6000813590506143b381615a76565b92915050565b6000813590506143c881615a8d565b92915050565b6000813590506143dd81615aa4565b92915050565b6000815190506143f281615aa4565b92915050565b600082601f83011261440957600080fd5b8135614419848260208601614328565b91505092915050565b600082601f83011261443357600080fd5b8135614443848260208601614366565b91505092915050565b60008135905061445b81615abb565b92915050565b60006020828403121561447357600080fd5b6000614481848285016143a4565b91505092915050565b6000806040838503121561449d57600080fd5b60006144ab858286016143a4565b92505060206144bc858286016143a4565b9150509250929050565b6000806000606084860312156144db57600080fd5b60006144e9868287016143a4565b93505060206144fa868287016143a4565b925050604061450b8682870161444c565b9150509250925092565b6000806000806080858703121561452b57600080fd5b6000614539878288016143a4565b945050602061454a878288016143a4565b935050604061455b8782880161444c565b925050606085013567ffffffffffffffff81111561457857600080fd5b614584878288016143f8565b91505092959194509250565b600080604083850312156145a357600080fd5b60006145b1858286016143a4565b92505060206145c2858286016143b9565b9150509250929050565b600080604083850312156145df57600080fd5b60006145ed858286016143a4565b92505060206145fe8582860161444c565b9150509250929050565b60006020828403121561461a57600080fd5b6000614628848285016143ce565b91505092915050565b60006020828403121561464357600080fd5b6000614651848285016143e3565b91505092915050565b600080600080600060a0868803121561467257600080fd5b600086013567ffffffffffffffff81111561468c57600080fd5b61469888828901614422565b955050602086013567ffffffffffffffff8111156146b557600080fd5b6146c188828901614422565b945050604086013567ffffffffffffffff8111156146de57600080fd5b6146ea88828901614422565b93505060606146fb8882890161444c565b925050608061470c8882890161444c565b9150509295509295909350565b60006020828403121561472b57600080fd5b60006147398482850161444c565b91505092915050565b6000806040838503121561475557600080fd5b60006147638582860161444c565b9250506020614774858286016143a4565b9150509250929050565b6000806040838503121561479157600080fd5b600061479f8582860161444c565b925050602083013567ffffffffffffffff8111156147bc57600080fd5b6147c885828601614422565b9150509250929050565b60006147de83836147ea565b60208301905092915050565b6147f381615230565b82525050565b61480281615230565b82525050565b600061481382615109565b61481d8185615137565b9350614828836150f9565b8060005b8381101561485957815161484088826147d2565b975061484b8361512a565b92505060018101905061482c565b5085935050505092915050565b61486f81615242565b82525050565b600061488082615114565b61488a8185615148565b935061489a8185602086016152b3565b6148a38161547f565b840191505092915050565b60006148b98261511f565b6148c38185615159565b93506148d38185602086016152b3565b6148dc8161547f565b840191505092915050565b60006148f28261511f565b6148fc818561516a565b935061490c8185602086016152b3565b80840191505092915050565b6000614925603283615159565b915061493082615490565b604082019050919050565b6000614948602683615159565b9150614953826154df565b604082019050919050565b600061496b602583615159565b91506149768261552e565b604082019050919050565b600061498e601c83615159565b91506149998261557d565b602082019050919050565b60006149b1602583615159565b91506149bc826155a6565b604082019050919050565b60006149d4602483615159565b91506149df826155f5565b604082019050919050565b60006149f7601983615159565b9150614a0282615644565b602082019050919050565b6000614a1a602c83615159565b9150614a258261566d565b604082019050919050565b6000614a3d603883615159565b9150614a48826156bc565b604082019050919050565b6000614a60602a83615159565b9150614a6b8261570b565b604082019050919050565b6000614a83602983615159565b9150614a8e8261575a565b604082019050919050565b6000614aa6602e83615159565b9150614ab1826157a9565b604082019050919050565b6000614ac9601e83615159565b9150614ad4826157f8565b602082019050919050565b6000614aec602083615159565b9150614af782615821565b602082019050919050565b6000614b0f603183615159565b9150614b1a8261584a565b604082019050919050565b6000614b32602c83615159565b9150614b3d82615899565b604082019050919050565b6000614b55602083615159565b9150614b60826158e8565b602082019050919050565b6000614b78602f83615159565b9150614b8382615911565b604082019050919050565b6000614b9b601983615159565b9150614ba682615960565b602082019050919050565b6000614bbe602183615159565b9150614bc982615989565b604082019050919050565b6000614be1602383615159565b9150614bec826159d8565b604082019050919050565b6000614c04603183615159565b9150614c0f82615a27565b604082019050919050565b614c238161529a565b82525050565b6000614c3582856148e7565b9150614c4182846148e7565b91508190509392505050565b6000602082019050614c6260008301846147f9565b92915050565b6000608082019050614c7d60008301876147f9565b614c8a60208301866147f9565b614c976040830185614c1a565b8181036060830152614ca98184614875565b905095945050505050565b60006020820190508181036000830152614cce8184614808565b905092915050565b6000602082019050614ceb6000830184614866565b92915050565b60006020820190508181036000830152614d0b81846148ae565b905092915050565b60006020820190508181036000830152614d2c81614918565b9050919050565b60006020820190508181036000830152614d4c8161493b565b9050919050565b60006020820190508181036000830152614d6c8161495e565b9050919050565b60006020820190508181036000830152614d8c81614981565b9050919050565b60006020820190508181036000830152614dac816149a4565b9050919050565b60006020820190508181036000830152614dcc816149c7565b9050919050565b60006020820190508181036000830152614dec816149ea565b9050919050565b60006020820190508181036000830152614e0c81614a0d565b9050919050565b60006020820190508181036000830152614e2c81614a30565b9050919050565b60006020820190508181036000830152614e4c81614a53565b9050919050565b60006020820190508181036000830152614e6c81614a76565b9050919050565b60006020820190508181036000830152614e8c81614a99565b9050919050565b60006020820190508181036000830152614eac81614abc565b9050919050565b60006020820190508181036000830152614ecc81614adf565b9050919050565b60006020820190508181036000830152614eec81614b02565b9050919050565b60006020820190508181036000830152614f0c81614b25565b9050919050565b60006020820190508181036000830152614f2c81614b48565b9050919050565b60006020820190508181036000830152614f4c81614b6b565b9050919050565b60006020820190508181036000830152614f6c81614b8e565b9050919050565b60006020820190508181036000830152614f8c81614bb1565b9050919050565b60006020820190508181036000830152614fac81614bd4565b9050919050565b60006020820190508181036000830152614fcc81614bf7565b9050919050565b6000602082019050614fe86000830184614c1a565b92915050565b600060e082019050615003600083018a614c1a565b818103602083015261501581896148ae565b9050818103604083015261502981886148ae565b9050818103606083015261503d81876148ae565b905061504c60808301866147f9565b61505960a0830185614c1a565b61506660c0830184614c1a565b98975050505050505050565b600061507c61508d565b90506150888282615318565b919050565b6000604051905090565b600067ffffffffffffffff8211156150b2576150b1615450565b5b6150bb8261547f565b9050602081019050919050565b600067ffffffffffffffff8211156150e3576150e2615450565b5b6150ec8261547f565b9050602081019050919050565b6000819050602082019050919050565b600081519050919050565b600081519050919050565b600081519050919050565b6000602082019050919050565b600082825260208201905092915050565b600082825260208201905092915050565b600082825260208201905092915050565b600081905092915050565b60006151808261529a565b915061518b8361529a565b9250827fffffffffffffffffffffffffffffffffffffffffffffffffffffffffffffffff038211156151c0576151bf6153c3565b5b828201905092915050565b60006151d68261529a565b91506151e18361529a565b9250826151f1576151f06153f2565b5b828204905092915050565b60006152078261529a565b91506152128361529a565b925082821015615225576152246153c3565b5b828203905092915050565b600061523b8261527a565b9050919050565b60008115159050919050565b60007fffffffff0000000000000000000000000000000000000000000000000000000082169050919050565b600073ffffffffffffffffffffffffffffffffffffffff82169050919050565b6000819050919050565b82818337600083830152505050565b60005b838110156152d15780820151818401526020810190506152b6565b838111156152e0576000848401525b50505050565b600060028204905060018216806152fe57607f821691505b6020821081141561531257615311615421565b5b50919050565b6153218261547f565b810181811067ffffffffffffffff821117156153405761533f615450565b5b80604052505050565b60006153548261529a565b91507fffffffffffffffffffffffffffffffffffffffffffffffffffffffffffffffff821415615387576153866153c3565b5b600182019050919050565b600061539d8261529a565b91506153a88361529a565b9250826153b8576153b76153f2565b5b828206905092915050565b7f4e487b7100000000000000000000000000000000000000000000000000000000600052601160045260246000fd5b7f4e487b7100000000000000000000000000000000000000000000000000000000600052601260045260246000fd5b7f4e487b7100000000000000000000000000000000000000000000000000000000600052602260045260246000fd5b7f4e487b7100000000000000000000000000000000000000000000000000000000600052604160045260246000fd5b6000601f19601f8301169050919050565b7f4552433732313a207472616e7366657220746f206e6f6e20455243373231526560008201527f63656976657220696d706c656d656e7465720000000000000000000000000000602082015250565b7f4f776e61626c653a206e6577206f776e657220697320746865207a65726f206160008201527f6464726573730000000000000000000000000000000000000000000000000000602082015250565b7f4552433732313a207472616e736665722066726f6d20696e636f72726563742060008201527f6f776e6572000000000000000000000000000000000000000000000000000000602082015250565b7f4552433732313a20746f6b656e20616c7265616479206d696e74656400000000600082015250565b7f596f752063616e206561726e206f6e6c792031206e667420666f72206120707260008201527f6f6a656374000000000000000000000000000000000000000000000000000000602082015250565b7f4552433732313a207472616e7366657220746f20746865207a65726f2061646460008201527f7265737300000000000000000000000000000000000000000000000000000000602082015250565b7f4552433732313a20617070726f766520746f2063616c6c657200000000000000600082015250565b7f4552433732313a206f70657261746f7220717565727920666f72206e6f6e657860008201527f697374656e7420746f6b656e0000000000000000000000000000000000000000602082015250565b7f4552433732313a20617070726f76652063616c6c6572206973206e6f74206f7760008201527f6e6572206e6f7220617070726f76656420666f7220616c6c0000000000000000602082015250565b7f4552433732313a2062616c616e636520717565727920666f7220746865207a6560008201527f726f206164647265737300000000000000000000000000000000000000000000602082015250565b7f4552433732313a206f776e657220717565727920666f72206e6f6e657869737460008201527f656e7420746f6b656e0000000000000000000000000000000000000000000000602082015250565b7f45524337323155524953746f726167653a2055524920736574206f66206e6f6e60008201527f6578697374656e7420746f6b656e000000000000000000000000000000000000602082015250565b7f526571756972656420616d6f756e74206973206e6f7420726561636865640000600082015250565b7f4552433732313a206d696e7420746f20746865207a65726f2061646472657373600082015250565b7f45524337323155524953746f726167653a2055524920717565727920666f722060008201527f6e6f6e6578697374656e7420746f6b656e000000000000000000000000000000602082015250565b7f4552433732313a20617070726f76656420717565727920666f72206e6f6e657860008201527f697374656e7420746f6b656e0000000000000000000000000000000000000000602082015250565b7f4f776e61626c653a2063616c6c6572206973206e6f7420746865206f776e6572600082015250565b7f4552433732314d657461646174613a2055524920717565727920666f72206e6f60008201527f6e6578697374656e7420746f6b656e0000000000000000000000000000000000602082015250565b7f52657175697265642064617465206d757374206265206d657400000000000000600082015250565b7f4552433732313a20617070726f76616c20746f2063757272656e74206f776e6560008201527f7200000000000000000000000000000000000000000000000000000000000000602082015250565b7f4552524f52203a2050726f6a6563742063616e206e6f7420626520656e64656460008201527f2121210000000000000000000000000000000000000000000000000000000000602082015250565b7f4552433732313a207472616e736665722063616c6c6572206973206e6f74206f60008201527f776e6572206e6f7220617070726f766564000000000000000000000000000000602082015250565b615a7f81615230565b8114615a8a57600080fd5b50565b615a9681615242565b8114615aa157600080fd5b50565b615aad8161524e565b8114615ab857600080fd5b50565b615ac48161529a565b8114615acf57600080fd5b5056fea2646970667358221220af01f84be73c924f6020d1e3ab7a4cb0f2ea4938060265ed1d2e67567111384664736f6c63430008010033",
  "immutableReferences": {},
  "source": "// SPDX-Licence-Identifier: MIT\r\n\r\npragma solidity ^0.8.0;\r\n\r\nimport \"@openzeppelin/contracts/access/Ownable.sol\";\r\nimport \"./Collectible.sol\";\r\n\r\n\r\ncontract Funding is Ownable, Collectible{\r\n\r\n  uint256 public time;\r\n\r\n  uint256 internal id = 0;\r\n\r\n  \r\n\r\n\r\n \r\n\r\n  //    Constructor\r\n\r\n  constructor() {\r\n      transferOwnership(msg.sender);\r\n  }\r\n\r\n  // Modifiers\r\n\r\n  modifier amount(uint256 _id) {\r\n    require(donatedAmount[msg.sender] >= donatedInfo[_id].requiredAmount,\"Required amount is not reached\");\r\n    _;\r\n  }\r\n\r\n  modifier onlyOwnerOf(uint256 _id){\r\n      require(msg.sender == donatedInfo[_id].donatedAddress);\r\n      _;\r\n  }\r\n\r\n \r\n\r\n\r\n  function _isReady(Donated storage _donated) internal view returns(bool){\r\n    return (_donated.requiredDate >= block.timestamp);\r\n  }\r\n\r\n  // Events\r\n\r\n  event Withdraw(address indexed from, uint256 indexed id, uint256 value );\r\n\r\n  // Setters\r\n\r\n  function setDonated(\r\n    string memory _name,\r\n    string memory _title,\r\n    string memory _definition,\r\n    uint256 _requiredAmount,\r\n    uint256 _requiredDate\r\n  ) public {\r\n      \r\n\r\n    Donated memory donated =  Donated(\r\n        id,\r\n      _name,\r\n      _title,\r\n      _definition,\r\n      msg.sender,\r\n      _requiredAmount,\r\n      _requiredDate\r\n    );\r\n\r\n    donatedInfo.push(donated);\r\n    addressToId[msg.sender] = id;\r\n    id = id + 1;\r\n    \r\n  }\r\n\r\n  //  Only Owner\r\n\r\n  // Handles if a project is met the requirements\r\n  // if the money is not withdrawed after 1 week\r\n  // Only the owner of the contract can call this\r\n  // Revers all the money to the donaters\r\n  \r\n\r\n  function dueDatehandler(uint256 _id) public onlyOwner {\r\n    require(block.timestamp >= donatedInfo[_id].requiredDate + withdrawDue,\"ERROR : Project can not be ended!!!\");\r\n    address donated_address = donatedInfo[_id].donatedAddress;\r\n    for(uint256 i=0 ; i < donatedToDonators[donated_address].length ; i ++  ){\r\n      payable(donatedToDonators[donated_address][i]).transfer(donatorAmount[donated_address][donatedToDonators[donated_address][i]]);\r\n      payable(donatedToDonatorsNFT[donated_address][i]).transfer(donatorAmountNFT[donated_address][donatedToDonatorsNFT[donated_address][i]]);\r\n    }\r\n  }\r\n  \r\n  // Getters\r\n    \r\n  function getContractAddress() external view returns(address) {\r\n    return address(this);    \r\n  }\r\n\r\n  function getDonatedAmount(address _donated) external view returns(uint256){\r\n    return donatedAmount[_donated];\r\n  }\r\n\r\n  function getDonatorAmount(uint256 _id, address _donator) public view returns(uint256) {\r\n      return donatorAmount[donatedInfo[_id].donatedAddress][_donator];\r\n  }\r\n\r\n  function getBalanceOfProject(uint256 _id) public view returns(uint256) {\r\n      return donatedAmount[donatedInfo[_id].donatedAddress];\r\n  }\r\n\r\n  \r\n\r\n\r\n\r\n\r\n  function getId() public view returns(uint256) {\r\n      return addressToId[msg.sender];\r\n  }\r\n\r\n  function getDonatedToDonators(uint256 _id) public view returns(address[] memory){\r\n      return donatedToDonators[donatedInfo[_id].donatedAddress];\r\n  }\r\n\r\n  \r\n\r\n  \r\n\r\n  // Fund and Withdraw\r\n\r\n  function fund(uint256 _id) public payable {\r\n    donatedAmount[donatedInfo[_id].donatedAddress] += msg.value;\r\n    donatorAmount[donatedInfo[_id].donatedAddress][msg.sender] += msg.value;\r\n    funders.push(msg.sender);\r\n    donatedToDonators[donatedInfo[_id].donatedAddress].push(msg.sender);\r\n  }\r\n\r\n  function fundEarnNft(uint256 _id,string memory tokenURI) public payable {\r\n    require(donatorAmountNFT[donatedInfo[_id].donatedAddress][msg.sender] == 0,\"You can earn only 1 nft for a project\");\r\n\r\n    donatedAmount[donatedInfo[_id].donatedAddress] += msg.value;\r\n    donatorAmountNFT[donatedInfo[_id].donatedAddress][msg.sender] += msg.value;\r\n    funders.push(msg.sender);\r\n    donatedToDonatorsNFT[donatedInfo[_id].donatedAddress].push(msg.sender);\r\n    setTokenURI(tokenURI, msg.sender);\r\n  }\r\n\r\n  function withdraw(uint256 _id) public payable amount(_id) onlyOwnerOf(_id) {\r\n    require(block.timestamp >= donatedInfo[_id].requiredDate,\"Required date must be met\");\r\n    payable(msg.sender).transfer(donatedAmount[msg.sender]);\r\n    emit Withdraw(msg.sender, _id, donatedAmount[msg.sender]);\r\n    donatedAmount[msg.sender] = 0;\r\n    donatedToDonators[donatedInfo[_id].donatedAddress] = new address[](0); \r\n    \r\n    handleDistribution(_id);\r\n    donatedToDonatorsNFT[donatedInfo[_id].donatedAddress] = new address[](0);\r\n  } \r\n\r\n\r\n  \r\n}",
  "sourcePath": "C:\\Users\\ykerc\\OneDrive\\Masast\\tez_final\\contracts\\funding.sol",
  "compiler": {
    "name": "solc",
    "version": "0.8.1+commit.df193b15.Emscripten.clang"
  },
  "schemaVersion": "3.4.7",
  "updatedAt": "2022-05-27T08:03:24.764Z",
  "networkType": "ethereum",
  "devdoc": {
    "kind": "dev",
    "methods": {
      "approve(address,uint256)": {
        "details": "See {IERC721-approve}."
      },
      "balanceOf(address)": {
        "details": "See {IERC721-balanceOf}."
      },
      "getApproved(uint256)": {
        "details": "See {IERC721-getApproved}."
      },
      "isApprovedForAll(address,address)": {
        "details": "See {IERC721-isApprovedForAll}."
      },
      "name()": {
        "details": "See {IERC721Metadata-name}."
      },
      "owner()": {
        "details": "Returns the address of the current owner."
      },
      "ownerOf(uint256)": {
        "details": "See {IERC721-ownerOf}."
      },
      "renounceOwnership()": {
        "details": "Leaves the contract without owner. It will not be possible to call `onlyOwner` functions anymore. Can only be called by the current owner. NOTE: Renouncing ownership will leave the contract without an owner, thereby removing any functionality that is only available to the owner."
      },
      "safeTransferFrom(address,address,uint256)": {
        "details": "See {IERC721-safeTransferFrom}."
      },
      "safeTransferFrom(address,address,uint256,bytes)": {
        "details": "See {IERC721-safeTransferFrom}."
      },
      "setApprovalForAll(address,bool)": {
        "details": "See {IERC721-setApprovalForAll}."
      },
      "supportsInterface(bytes4)": {
        "details": "See {IERC165-supportsInterface}."
      },
      "symbol()": {
        "details": "See {IERC721Metadata-symbol}."
      },
      "tokenURI(uint256)": {
        "details": "See {IERC721Metadata-tokenURI}."
      },
      "transferFrom(address,address,uint256)": {
        "details": "See {IERC721-transferFrom}."
      },
      "transferOwnership(address)": {
        "details": "Transfers ownership of the contract to a new account (`newOwner`). Can only be called by the current owner."
      }
    },
    "version": 1
  },
  "userdoc": {
    "kind": "user",
    "methods": {},
    "version": 1
  }
}